:020000040800F2
:1000000010090020C1010008571500084F1500080D
:1000100053150008CD020008A920000800000000C8
:10002000000000000000000000000000891B000824
:10003000D102000800000000D91900088B1B00083D
:10004000DB010008DB010008DB010008DB01000820
:10005000DB010008DB010008DB010008DB01000810
:10006000DB010008DB010008DB010008DB01000800
:10007000DB010008DB010008DB010008DB010008F0
:10008000DB010008DB010008DB010008DB010008E0
:10009000DB010008DB010008DB010008DB010008D0
:1000A000DB010008DB010008DB010008DB010008C0
:1000B000DB010008DB010008DB010008DB010008B0
:1000C000DB010008DB010008DB010008DB010008A0
:1000D000DB010008DB010008DB010008DB01000890
:1000E000DB010008DB010008DB010008DB01000880
:1000F000DB010008DB010008DB010008DB01000870
:10010000DB010008DB010008DB010008DB0100085F
:10011000DB010008DB010008DB010008DB0100084F
:10012000DB010008DB010008DB010008DB0100083F
:10013000DB010008DB010008DB010008DB0100082F
:10014000DB010008DB010008DB010008DB0100081F
:10015000DB010008DB010008DB010008DB0100080F
:10016000DB010008DB010008DB010008DB010008FF
:10017000DB010008DB010008DB01000800000000D3
:10018000DB010008DB010008DB010008DB010008DF
:10019000DB010008DB010008DB010008DB010008CF
:1001A000DB010008DB010008DB010008DFF80CD0F0
:1001B00000F07AF800480047952400081009002054
:1001C0000648804706480047FEE7FEE7FEE7FEE7F1
:1001D000FEE7FEE7FEE7FEE7FEE7FEE7411C00085C
:1001E000AD0100082DE9F05F0546002092469B46D0
:1001F00088460646814640241BE02846414647463D
:10020000224600F041F853465A46C01A914110D395
:1002100011461846224600F028F82D1A67EB01080F
:100220004F4622460120002100F01FF817EB00097D
:100230004E41201EA4F10104DFDC484631462A4627
:100240004346BDE8F09FD2B201E000F8012B491E01
:10025000FBD270470022F6E710B513460A46044663
:100260001946FFF7F0FF204610BD202A04DB203A94
:1002700000FA02F1002070479140C2F1200320FAF9
:1002800003F3194390407047202A04DB203A21FAF7
:1002900002F00021704721FA02F3D040C2F120029F
:1002A0009140084319467047064C074D06E0E06848
:1002B00040F0010394E8070098471034AC42F6D3AD
:1002C000FFF778FF383E0008583E000800BFFEE701
:1002D0007047000000B587B000BF002001900D48B6
:1002E000006840F020000B4908600846006800F0F4
:1002F0002000019000BF00BF402002900120039029
:1003000004900220059002A9034800F01BF807B0F2
:1003100000BD0000303802400014024070B50446B1
:1003200000F024F906462546681C10B10448007800
:10033000054400BF00F01AF9801BA842FAD370BD33
:100340000C000020F8B502460B46002500240020D2
:100350000021E6E0012606FA01F51E6806EA05041A
:10036000AC4273D15E68022E02D05E68122E13D1A9
:10037000CF0802F1200656F827004E07F70E0F2689
:10038000BE40B0434F07FF0E1E69BE403043CF084A
:1003900002F1200646F8270010684F000326BE40F1
:1003A000B0431E7906F003064F00BE403043106094
:1003B0005E68012E08D05E68022E05D05E68112EA0
:1003C00002D05E68122E13D190684F000326BE4003
:1003D000B0434F00DE68BE40304390605068012655
:1003E0008E40B0431E79C6F300168E4030435060F5
:1003F000D0684F000326BE40B0434F009E68BE4009
:100400003043D0605E6806F08056B6F1805FA8D1B8
:1004100000BF00260096454E366846F48046434F9E
:100420003E603E46366806F48046009600BF00BF38
:100430003F4E8F0856F827008E07370F0F26BE4015
:10044000B0433C4EB24202D100262EE068E03A4E64
:10045000B24201D1012628E0384EB24201D1022633
:1004600023E0374EB24201D103261EE0354EB242A0
:1004700001D1042619E0344EB24201D1052614E020
:10048000324EB24201D106260FE0314EB24201D1C6
:1004900007260AE02F4EB24201D1082605E02E4E73
:1004A000B24201D1092600E00A268F073F0FBE4065
:1004B00030431F4E8F0846F82700284E3068A0436F
:1004C0005E6806F48036B6F5803F00D12043234EA7
:1004D0003060361D3068A0435E6806F40036B6F51D
:1004E000003F00D120431D4E361D3060361D306860
:1004F000A0435E6806F48016B6F5801F00D1204345
:10050000164E08363060361D3068A0435E6806F42B
:100510000016B6F5001F00D12043104E0C36306097
:10052000491C1029FFF416AFF8BD00004438024002
:100530000838014000000240000402400008024068
:10054000000C02400010024000140240001802405B
:10055000001C02400020024000240240003C0140F8
:100560000AB1816101E00B048361704701480068B2
:100570007047000004000020034800680349097820
:100580000844014908607047040000200C00002066
:1005900070B504460E4800784FF47A71B1FBF0F064
:1005A0000C490968B1FBF0F5284600F0BBFE08B124
:1005B000012070BD102C07D200222146501E00F0F1
:1005C0000DF80548046001E00120F2E70020F0E7A3
:1005D0000C00002000000020080000202DE9F05F42
:1005E00080460D461646002701F0B8FD07463946FD
:1005F0002A46334601F00700C0F1070ABAF1040F9A
:1006000002D94FF0040A01E0C0F1070AD14600F117
:10061000040ABAF1070F02D24FF0000A01E0A0F17C
:10062000030AD4464FF0010A0AFA09FAAAF1010AAC
:100630000AEA020A0AFA0CFA4FF0010B0BFA0CFB59
:10064000ABF1010B0BEA030B4AEA0B0421464046CF
:1006500001F08CFDBDE8F09F38B5002400BF0020FC
:1006600000901D48006840F080501B490860084613
:10067000006800F08050009000BF00BF01201749C3
:100680000864FFF773FF044607E0FFF76FFF001BE6
:10069000B0F57A7F01D9032038BD1148406800F4D5
:1006A0008030B0F5803FF0D101200C494864FFF75D
:1006B0005DFF044607E0FFF759FF001BB0F57A7FA6
:1006C00001D90320E8E70648406800F40030B0F59F
:1006D000003FF0D10020DFE74038024000000E422A
:1006E0000070004070B504460D460CB9012070BD85
:1006F0005848006800F00F00A84209D255490D7013
:100700000846006800F00F00A84201D00120EEE783
:10071000207800F0020002281DD1207800F00400AB
:10072000042805D14C48006840F4E0504A4908606C
:10073000207800F00800082805D14748006840F4F8
:100740006040454908604448006820F0F000A16816
:10075000084341490860207800F00100A8B36068B0
:10076000012807D13C4808380068C0F34040B8B9B8
:100770000120BCE76068022802D06068032807D126
:10078000354808380068C0F3406048B90120AEE73A
:10079000314808380068C0F3400008B90120A6E7D6
:1007A0002D48006820F00300616808432A4908606A
:1007B000FFF7DCFE064609E0FFF7D8FE801B41F29A
:1007C0008831884202D9032091E707E02248006877
:1007D00000F00C006168B0EB810FEDD11D4800689E
:1007E00000F00F00A84209D91A490D7008460068A8
:1007F00000F00F00A84201D0012078E7207800F037
:100800000400042807D11448006820F4E050E1688F
:10081000084311490860207800F00800082808D132
:100820000D48006820F46040216940EAC1000A498F
:10083000086000F03DF808490968C1F30311074A50
:10084000515CC840064908600020FFF7A1FE002067
:100850004DE70000003C02400838024060260008D6
:1008600000000020014800687047000000000020E0
:1008700000B5FFF7F7FF04490968C1F38221034A75
:10088000515CC84000BD00000838024070260008D6
:1008900000B5FFF7E7FF04490968C1F34231034A95
:1008A000515CC84000BD00000838024070260008B6
:1008B0002DE9F047002400250026A14625480068C0
:1008C00000F00C0020B1042805D008283AD105E03A
:1008D000DFF8849039E0DFF8849036E01D48001F8F
:1008E000006800F03F041B48001F006800F480000F
:1008F00078B11A481749091F0968C1F38811A0FB8C
:1009000001700146224600233846FFF76BFC05467E
:100910000EE011480F49091F0968C1F38811A0FBB7
:1009200001700146224600233846FFF75BFC05466E
:100930000848001F0068C0F30140401C4600B5FB9A
:10094000F6F902E0DFF8109000BF00BF4846BDE8AE
:10095000F0870000083802400024F40040787D0150
:10096000F8B504460CB90120F8BD207800F001006C
:10097000002874D0F948006800F00C0004280DD05D
:10098000F648006800F00C00082813D1F348001F57
:10099000006800F48000B0F5800F0BD1EF480838F4
:1009A0000068C0F34040002859D06068002856D144
:1009B0000120D9E700BF6068B0F5803F08D1E74863
:1009C0000838006840F48030E449083908601EE0C7
:1009D0006068B0F5A02F0DD1E0480838006840F4F9
:1009E0008020DE49083908600846006840F48030FD
:1009F00008600CE0D9480838006820F48030D749F6
:100A0000083908600846006820F48020086000BFAC
:100A1000606890B1FFF7AAFD054606E0FFF7A6FD66
:100A2000401B642801D903209EE7CC4808380068A1
:100A3000C0F340400028F1D011E0FFF797FD0546D4
:100A400006E0FFF793FD401B642801D903208BE7E4
:100A5000C24808380068C0F340400028F1D120782F
:100A600000F0020002285FD1BC48006800F00C00D2
:100A700058B1BA48006800F00C0008281CD1B748EB
:100A8000001F006800F48000B0B9B448083800685E
:100A9000C0F3400020B1E068012801D0012063E7E5
:100AA000AE480838006820F0F800216940EAC1002B
:100AB000AA490839086037E0E06800B30120A84976
:100AC0000860FFF753FD054606E0FFF74FFD401BAA
:100AD000022801D9032047E7A04808380068C0F37E
:100AE00040000028F1D09D480838006820F0F80048
:100AF000216940EAC10099490839086014E00020E2
:100B000097490860FFF732FD054606E0FFF72EFD26
:100B1000401B022801D9032026E7904808380068C6
:100B2000C0F340000028F1D1207800F00800082828
:100B30002CD16069A8B101208A490860FFF716FD31
:100B4000054606E0FFF712FD401B022801D90320ED
:100B50000AE782486C300068C0F340000028F1D0FA
:100B600014E000207F490860FFF700FD054606E01D
:100B7000FFF7FCFC401B022801D90320F4E677486C
:100B80006C300068C0F340000028F1D1207800F0FC
:100B90000400042870D1002670483830006800F046
:100BA000805090B900BF002000906C483830006839
:100BB00040F080506949383108600846006800F00C
:100BC0008050009000BF00BF01266748006800F415
:100BD0008070B0B96448006840F480706249086071
:100BE000FFF7C4FC054606E0FFF7C0FC401B0228E7
:100BF00001D90320B8E65C48006800F48070002842
:100C0000F2D000BFA068012808D1544868300068BD
:100C100040F001005149683108601DE0A0680528D6
:100C20000DD14E486830006840F004004B496831EF
:100C300008600846006840F0010008600CE0474882
:100C40006830006820F001004449683108600846B7
:100C5000006820F00400086000BFA068A8B1FFF79A
:100C600085FC054609E0FFF781FC401B41F2883115
:100C7000884202D9032077E626E0384868300068C9
:100C8000C0F340000028EED013E0FFF76FFC0546EC
:100C900008E0FFF76BFC401B41F28831884201D924
:100CA000032061E62D4868300068C0F3400000284A
:100CB000EFD1012E07D129483830006820F080504C
:100CC00026493831086000BFA069B8B323480068DE
:100CD00000F00C0008285ED0A069022846D1002050
:100CE0001F490866FFF742FC054606E0FFF73EFC99
:100CF000401B022801D9032036E61848083800684E
:100D0000C0F340600028F1D1D4E907010843616ACB
:100D100040EA81110122A06AC2EB500041EA004181
:100D20002C20005D41EA00600C49091F0860012089
:100D30000B490866FFF71AFC054607E02DE0FFF7B0
:100D400015FC401B022801D903200DE60348083892
:100D50000068C0F340600028F1D01EE0083802406F
:100D600000004742800E47420070004000200C49BE
:100D70000866FFF7FBFB054606E0FFF7F7FB401BA5
:100D8000022801D90320EFE506480068C0F340605F
:100D90000028F2D101E00120E6E50020E4E50000B2
:100DA000000047420038024010B504460CB901204B
:100DB00010BD606A00B900BF0021A16294F8510023
:100DC00028B9002084F85000204600F033F80220B3
:100DD00084F851002068006820F040002168086015
:100DE000D4E901010843E1680843216908436169C6
:100DF0000843218B01F400710843E1690843216A2B
:100E00000843A16A0843216808600421A06901EA37
:100E10001040616A0843216848602068C06920F476
:100E200000602168C86100206065012084F85100DD
:100E30000020BDE710B586B00446414920688842CD
:100E400039D140480068006840F040003D490968D9
:100E5000086000BF002000903B48006840F480100C
:100E6000394908600846006800F48010009000BF0F
:100E700000BF00BF0020009033481438006840F0E5
:100E800020003149143908600846006800F020004D
:100E9000009000BF00BF4FF46070019002200290EC
:100EA00000200390032004900520059001A9274805
:100EB000FFF748FA41E02649206888423DD100BF4B
:100EC000002000902048006840F480501E490860CF
:100ED0000846006800F48050009000BF00BF00BFCB
:100EE0000020009018481438006840F001001649AE
:100EF000143908600846006800F00100009000BF47
:100F000000BFA02001900220029000200390022048
:100F100004900520059001A90E48FFF713FA402020
:100F200001900220029000200390032004900520ED
:100F3000059001A90748FFF705FA06B010BD0000AB
:100F4000005001405C000020443802400014024080
:100F500000300140000002402DE9F84F0446884669
:100F600016461D464FF0000A00BF94F850000128B5
:100F700002D10220BDE8F88F012084F8500000BFA4
:100F8000FFF7F4FA0746B14694F85100012802D061
:100F90004FF0020AA7E0B8F1000F00D016B94FF0E9
:100FA000010AA0E0032084F8510000206065C4F825
:100FB0003080A686E686A063A087E0876064206410
:100FC000A068B0F5004F05D12068006840F480406B
:100FD000216808602068006800F04000402805D0C3
:100FE0002068006840F0400021680860E068B0F5C3
:100FF000006F2FD1606810B1B9F1010F09D1206BDA
:1010000000882168C860206B801C2063E08E401E31
:10101000E0861BE02068806800F0020002280AD108
:10102000206B00882168C860206B801C2063E08EE4
:10103000401EE0860AE0FFF799FAC01BA84201D3E0
:10104000681C00B915B94FF0030A4CE0E08E002887
:10105000E0D12EE0606810B1B9F1010F09D1206B29
:10106000007821680873206B401C2063E08E401ECE
:10107000E0861BE02068806800F0020002280AD1A8
:10108000206B007821680873206B401C2063E08E81
:10109000401EE0860AE0FFF769FAC01BA84201D3B0
:1010A000681C00B915B94FF0030A1CE0E08E002857
:1010B000E0D13A462946204600F0A0FC08B12020A5
:1010C0006065A06850B900BF002000902068C0682B
:1010D000009020688068009000BF00BF606D08B17C
:1010E0004FF0010A00BF012084F8510000BF00202A
:1010F00084F8500000BF50463CE72DE9FF5F0446EE
:10110000884691461D460E9E0120029000200190C7
:1011100000BF94F85000012803D1022004B0BDE8BC
:10112000F09F012084F8500000BFFFF71FFA074628
:1011300094F851B060680390AA46BBF1010F0BD040
:101140000398B0F5827F04D1A06810B9BBF1040FF9
:1011500002D002200190DBE0B8F1000F03D0B9F11A
:10116000000F00D015B901200190D1E094F8510092
:10117000042802D0052084F8510000206065C4F8DE
:101180003890E587A587C4F83080E586A586206479
:1011900060642068006800F04000402805D02068A6
:1011A000006840F0400021680860E068B0F5006F1A
:1011B0004AD1606810B1BAF1010F09D1206B0088E3
:1011C0002168C860206B801C2063E08E401EE08692
:1011D00033E02068806800F00200022810D1E08E21
:1011E00070B1029801280BD1206B00882168C8607B
:1011F000206B801C2063E08E401EE0860020029061
:101200002068806800F0010068B1E08F58B1206864
:10121000C068A16B0880A06B801CA063E08F401E9B
:10122000E08701200290FFF7A1F9C01BB04204D370
:10123000701C10B1032001906AE0E08E0028C8D134
:10124000E08F0028C5D14AE0606810B1BAF1010F03
:1012500009D1206B007821680873206B401C206343
:10126000E08E401EE08634E02068806800F00200D6
:10127000022810D1E08E70B1029801280BD1206BAA
:10128000007821680873206B401C2063E08E401EAC
:10129000E086002002902068806800F0010068B1BC
:1012A000E08F58B12068C068A16B0870A06B401C2B
:1012B000A063E08F401EE08701200290FFF756F9FF
:1012C000C01BB04201D3701C00B916B903200190B5
:1012D0001EE0E08E0028C7D1E08F0028C4D13A4636
:1012E0003146204600F08AFB20B1012001902020E9
:1012F00060650DE0A06850B900BF00200090206834
:10130000C068009020688068009000BF00BF00BFE8
:10131000012084F8510000BF002084F8500000BF75
:101320000198FBE670B504462546681EB0F1807F43
:1013300001D301200FE0681E4FF0E02148610F212A
:101340004FF0FF3000F012FF00204FF0E0218861E5
:1013500007200861002070BD10B504460CB90120BB
:1013600010BDA06900B100E000BF94F8390028B9B1
:10137000002084F83800204600F028F8242084F863
:1013800039002068C06820F400502168C8602046F9
:1013900000F088FC2068006920F490402168086112
:1013A0002068406920F02A00216848612068C068F0
:1013B00040F400502168C8600020E063202084F8D9
:1013C000390084F83A000020CAE7000010B586B062
:1013D000044626492068884245D100BF002000907D
:1013E0002348006840F01000214908600846006862
:1013F00000F01000009000BF00BF00BF0020009070
:101400001B481438006840F001001949143908607D
:101410000846006800F00100009000BF00BF00BF58
:10142000002000900846006840F00100086008466F
:10143000006800F00100009000BF00BF4815019057
:1014400002200290012003900220049007200590C2
:1014500001A90848FEF776FF4FF48060019001A9CA
:101460000448FEF76FFF06B010BD000000100140F9
:1014700044380240000002402DE9F84304460D467E
:1014800016461F464FF0000994F8390020285CD119
:1014900005B116B90120BDE8F88300BF94F8380003
:1014A000012801D10220F6E7012084F8380000BFAE
:1014B0000020E063212084F83900FFF757F88146C7
:1014C000A684E6842BE0E08C401EE084A068B0F5A2
:1014D000805F16D14B46002280212046009700F005
:1014E00095FD08B10320D6E7A846B8F80000C0F380
:1014F000080021684860206908B9AD1C0FE06D1C28
:101500000DE04B46002280212046009700F07EFD32
:1015100008B10320BFE715F8010B21684860E08C93
:101520000028D0D14B46002240212046009700F0F1
:101530006DFD08B10320AEE7202084F8390000BF1C
:10154000002084F8380000BFA5E70220A3E700BF11
:10155000FEE700BFFEE7704770B500240CE00025F1
:1015600006E00020074901EBC5010855681CC5B21B
:10157000802DF6DB601CC4B2082CF0DB00F028F9EB
:1015800070BD00000C010020F0B5144600267F2835
:1015900001DC3F2900DDF0BD0B46CF1701EB57778B
:1015A000FF10C7F10707FAB2CF1701EB5777FF100B
:1015B000A1EBC707FDB2C5F107070123BB40DEB2AF
:1015C0004CB10A4B03EBC0039B5C3343074F07EB63
:1015D000C007BB5408E0054B03EBC0039B5CB3435F
:1015E000024F07EBC007BB5400BFD4E70C0100203B
:1015F00000B587B0142102A8FEF72CFE00BF002022
:1016000001906F48006840F010006D49086008467E
:10161000006800F01000019000BF00BF00BF002074
:1016200001900846006840F08000086008460068A5
:1016300000F08000019000BF00BF00BF00200190BB
:101640000846006840F0010008600846006800F0A5
:101650000100019000BF00BF00BF002001900846BC
:10166000006840F0020008600846006800F00200D0
:10167000019000BF00BF002204215248FEF770FF16
:10168000002210215048FEF76BFF002204214F4832
:10169000FEF766FF042002900120039000200490D2
:1016A0000220059002A94748FEF74CFE1020029048
:1016B00001200390002004900220059002A94248D6
:1016C000FEF740FE042002900120039000200490C9
:1016D000059002A93D48FEF735FE002210213A4848
:1016E000FEF73EFF6420FEF719FE01221021364866
:1016F000FEF736FF0021AE2000F046F90021D5208C
:1017000000F042F90021502000F03EF90021A8200D
:1017100000F03AF900213F2000F036F90021D320F3
:1017200000F032F90021084600F02EF90021402097
:1017300000F02AF900218D2000F026F90021142064
:1017400000F022F90021202000F01EF900210220E3
:1017500000F01AF90021A12000F016F90021C020A4
:1017600000F012F90021DA2000F00EF90021122019
:1017700000F00AF90021812000F006F90021EF2095
:1017800000F002F90021D92000F0FEF80021F1203C
:1017900000F0FAF80021DB2000F0F6F800213020FC
:1017A00000F0F2F80021A42000F0EEF80021A620BD
:1017B00000F0EAF80021AF2000F0E6F807B000BD25
:1017C0003038024000100240000002400004024095
:1017D00070B500241CE004F1B001C8B2002100F093
:1017E000D3F80021084600F0CFF80021102000F0C7
:1017F000CBF8002508E0084901EBC501085D01218F
:1018000000F0C2F8681CC5B2802DF4DB601CC4B2C5
:10181000082CE0DB70BD00000C0100202DE9F84F22
:1018200080460F4616461C46BA462046E31704EB90
:101830005373DB1021464FEAE47C04EB5C7C4FEAF7
:10184000EC0CA4EBCC0CBCF1000F02D04FF0010C5F
:1018500001E04FF0000C6344224604EBD27C4FEAD7
:101860006C0C03FB0CF303F0FF0BA6F12000C6B2D7
:1018700000254EE00C2C07D106EB4600274901EB72
:101880008000405D009013E0102C05D1244800EB4F
:101890000610405D00900BE0182C07D106EBC60047
:1018A000204901EB8000405D009001E0BDE8F88F29
:1018B0004FF0000927E0009800F0800028B1394679
:1018C00040460A9AFFF760FE09E00A9808B901202D
:1018D00000E00020024639464046FFF755FE0098DA
:1018E0004006000E0090781CC7B2A7EB0A00A04289
:1018F00005D1574608F1010000F0FF0806E009F1A4
:10190000010000F0FF09B9F1080FD4DB00BF681C2B
:10191000C5B25D45AEDB00BFC8E700007826000811
:10192000EC2A0008DC300008F8B506460F461546DC
:101930001C4621E004EBD4714910C1F18001B14291
:1019400002DA00263819C7B2C4F14000B84204DAFE
:10195000002006460746FFF7FFFD012000902A7889
:10196000234639463046FFF759FF204604EBD07135
:1019700006EB6101CEB26D1C28787E2802DC287847
:101980002028D7DAF8BD000013B50C46012C0FD182
:10199000012204210E48FEF7E3FD4FF47A73012281
:1019A00069460C48FFF7D8FA0220FEF7B7FC0EE0B4
:1019B000002204210648FEF7D3FD4FF47A7301227A
:1019C00069460448FFF7C8FA0220FEF7A7FC1CBDD1
:1019D00000100240B40000207047000001B582B042
:1019E0004FF47A70012301AA02A900900248FFF780
:1019F00084FB9DF804000EBD5C0000207CB504460D
:101A00000D461646164800681821B0FBF1F015493E
:101A1000B0FBF1F04FF47A71484301906068B0F583
:101A2000827F0DD12B46002280212046009600F0B7
:101A300057F898B1606D40F02000606503207CBDD0
:101A400000BF019800B908E00198401E019020688D
:101A50008068C0F3C0100028F3D100BF0020EEE77B
:101A60000000002040420F0010B5194819490860D5
:101A70004FF482704860002116488160C1600221E5
:101A8000016101214161490281610021C16101625D
:101A9000416281620721C162FFF786F90E480F4952
:101AA00008604FF48270486000210C488160C1607A
:101AB000016141614FF4007181613021C1610021F8
:101AC0000162416281620A21C162FFF76DF910BDB6
:101AD000005001405C00002000300140B4000020B4
:101AE0002DE9F04104460E4617461D46DDF81880E4
:101AF0003EE0681CD8B3FEF739FDA0EB0800A84211
:101B000000D2A5BB2068406820F0E0002168486052
:101B10006068B0F5827F0DD1A068B0F5004F03D0AA
:101B2000A068B0F5806F05D12068006820F0400003
:101B300021680860A06AB0F5005F0DD100BF206881
:101B4000006820F40050216808602068006840F4B4
:101B500000502168086000BF012084F8510000BFD8
:101B6000002084F8500000BF0320BDE8F081FFE7AB
:101B7000206880683040B04201D1012000E00020A0
:101B8000B842B6D10020F0E7704710B5FEF7F4FC7C
:101B900010BD000000B593B0302107A8FEF75AFB36
:101BA000142102A8FEF756FB00BF00200190224836
:101BB000006840F08050204908600846006800F046
:101BC0008050019000BF00BF00BF002001901B4863
:101BD000006840F44040194908600846006800F475
:101BE0004040019000BF00BF012007900004089012
:101BF00002200D9041050E910F210F91D8211091D7
:101C0000022111910421129107A8FEF7A9FEFEF707
:101C100023FD0F20029002200390002004904FF437
:101C2000A05005904FF480500690052102A8FEF7C1
:101C300059FD13B000BD0000403802400070004064
:101C40001448006840F470001249086012480068A7
:101C500040F001001049086000200F490831086079
:101C60000D4800680D4908400B4908600C48091DE3
:101C70000860081F006820F48020091F0860002009
:101C800005490C3108604FF0006002498039086056
:101C90007047000088ED00E000380240FFFFF6FECC
:101CA000103000242DE9F04104462068006920F43A
:101CB0004050E1680843216808612169A068084331
:101CC00061690843E16940EA01052068C06849F29A
:101CD0000C61884328432168C8602068406920F46B
:101CE0004070A169084321684861E069B0F5004F80
:101CF0007ED1C4492068884203D0C3492068884205
:101D00005DD1FEF7C5FD00EBC00101EB001061687D
:101D10004900B0FBF1F06421B0FBF1F00601FEF7E1
:101D2000B7FD00EBC00101EB001061684900B0FB9A
:101D3000F1F7FEF7ADFD00EBC00101EB00106168AB
:101D40004900B0FBF1F06421B0FBF1F000EBC00101
:101D500001EB0010A7EB8000322101EBC0006421F1
:101D6000B0FBF1F000F0F80006EB4006FEF790FD46
:101D700000EBC00101EB001061684900B0FBF1F716
:101D8000FEF786FD00EBC00101EB00106168490021
:101D9000B0FBF1F06421B0FBF1F000EBC00101EB0E
:101DA0000010A7EB8000322101EBC0006421B0FBE2
:101DB000F1F000F0070030442168886020E1FEF770
:101DC00057FD00EBC00101EB001061684900B0FB5A
:101DD000F1F06421B0FBF1F00601FEF749FD00EBE4
:101DE000C00101EB001061684900B0FBF1F700E0B1
:101DF00045E0FEF73DFD00EBC00101EB001061681E
:101E00004900B0FBF1F06421B0FBF1F000EBC00140
:101E100001EB0010A7EB8000322101EBC000642130
:101E2000B0FBF1F000F0F80006EB4006FEF720FDF5
:101E300000EBC00101EB001061684900B0FBF1F755
:101E4000FEF716FD00EBC00101EB001061684900D0
:101E5000B0FBF1F06421B0FBF1F000EBC00101EB4D
:101E60000010A7EB8000322101EBC0006421B0FB21
:101E7000F1F000F00700304421688860C0E061495B
:101E80002068884203D06049206888425CD1FEF710
:101E9000FFFC00EBC00101EB001061688900B0FBA2
:101EA000F1F6FEF7F5FC00EBC00101EB00106168F4
:101EB0008900B0FBF1F06421B0FBF1F000EBC00150
:101EC00001EB0010A6EB8000322101EB0010642131
:101ED000B0FBF1F000F0F006FEF7DAFC00EBC00119
:101EE00001EB001061688900B0FBF1F06421B0FBE8
:101EF000F1F006EB0016FEF7CBFC00EBC00101EBA6
:101F0000001061688900B0FBF1F7FEF7C1FC00EB3F
:101F1000C00101EB001061688900B0FBF1F06421A1
:101F2000B0FBF1F000EBC00101EB0010A7EB80006B
:101F3000322101EB00106421B0FBF1F000F00F0042
:101F40003044216888605BE0FEF792FC00EBC00142
:101F500001EB001061688900B0FBF1F6FEF788FC28
:101F600000EBC00101EB001061688900B0FBF1F0EB
:101F70006421B0FBF1F000EBC00101EB0010A6EB17
:101F80008000322101EB00106421B0FBF1F000F081
:101F9000F006FEF76DFC00EBC00101EB001061687C
:101FA0008900B0FBF1F06421B0FBF1F006EB001604
:101FB000FEF75EFC00EBC00101EB001061688900D8
:101FC000B0FBF1F7FEF754FC00EBC00101EB001091
:101FD00061688900B0FBF1F06421B0FBF1F000EB27
:101FE000C00101EB0010A7EB8000322101EB0010D3
:101FF0006421B0FBF1F000F00F00304421688860EC
:10200000BDE8F08100100140001401402DE9F041CD
:1020100004460D4617469846069E21E0701CF8B10E
:102020002EB1FEF7A3FAA0EB0800B04218D9206841
:10203000C06820F4D0702168C8602068406920F032
:10204000010021684861202084F8390084F83A00B2
:1020500000BF002084F8380000BF0320BDE8F081F5
:10206000206800682840A84201D1012000E000203B
:10207000B842D3D00020F1E710B5094809490860FB
:102080004FF4E13048600C21064841610021816035
:10209000C16081610161C161FFF75EF910BD00009F
:1020A000001001401C00002000BFFEE710B5002416
:1020B000002240210F48FEF753FA9020FFF78EFCD4
:1020C0009020FFF78BFC9020FFF788FC0020FFF7A3
:1020D00085FCFF20FFF782FC44EA0024FF20FFF785
:1020E0007DFC0443012240210248FEF739FA2046D4
:1020F00010BD00000014024010B500240022402151
:102100000D48FEF72DFA9F20FFF768FC9F20FFF790
:1021100065FC44EA00449F20FFF760FC44EA002489
:102120009F20FFF75BFC0443012240210248FEF799
:1021300017FA204610BD0000001402400FB4054BF2
:1021400010B503A9044A029800F034F810BC5DF8F9
:1021500014FB0000752400081800002002480068E5
:10216000C0F30220704700000CED00E010B500281D
:1021700004DB0A07130E054A135406E00A07140E7F
:10218000034A00F00F031B1FD45410BD00E400E00D
:1021900018ED00E002E008C8121F08C1002AFAD1B9
:1021A00070477047002001E001C1121F002AFBD1D7
:1021B000704700002DE9FF4F8DB09B460F46044647
:1021C000002606E025280BD05A460F999047641C3C
:1021D000761C20780028F5D111B03046BDE8F08F8C
:1021E0000025A8460122984900E0054314F8013F64
:1021F000203B02FA03F00842F7D120782E2817D1AD
:1022000014F8010F45F004052A280ED06FF02F02B4
:102210002078A0F1300109290AD808EB880102EBE7
:10222000410100EB0108641CF2E757F8048B641CC1
:1022300020786C280DD004DC4C2812D06A2811D1EB
:1022400004E074280DD07A280CD10AE045F400157A
:1022500007E0617845F48015814202D1641C05F5E0
:102260008015641C2278692A45D008DC002AB3D086
:10227000582A69D0632A10D0642A08D13BE0702A1A
:1022800067D0732A13D0752A5CD0782A5CD01046A8
:102290005A460F999047761CD3E017F8040B8DF837
:1022A000000000208DF80100E946012003E057F806
:1022B000049B4FF0FF3069074FF0000501D40AE09E
:1022C0006D1C45450DDA8542FADB19F80510002929
:1022D000F6D106E06D1C8542FCDB19F805100029DB
:1022E000F8D12E4404E019F8010B5A460F99904793
:1022F0006D1EF8D2A5E00A200021CDE90801C5F342
:10230000025002280DD001CFC117031E71F1000346
:102310000DDA4FF0000CD0EB0C006CEB01012D231B
:1023200008E0FF1D27F00707F7E80201EDE72B059E
:1023300004D52B238DF8283001233BE0EB0739D05F
:102340002023F7E70A2000E010200021CDE9080152
:1023500007E01020002145F00405CDE908014FF009
:102360000808C5F3025002280FD001CF00214FF01A
:10237000000A2B071FD5702A0DD0DDE908C38CF0A9
:10238000100C5CEA030C0CD015E0FF1D27F00707CA
:10239000F7E80201EBE740228DF828204FF0010A10
:1023A0000BE050EA010306D030238DF828308DF879
:1023B000292002239A46582A04D024A20DF120098C
:1023C0000B9209E026A2F9E7DDE90823FDF70AFFF1
:1023D0000B9B9B5C09F8013D50EA0102F4D1ADEB87
:1023E000090020300890680701D44FF001080899CF
:1023F000884502DDA8EB010000E0002080460025B2
:1024000006E00AA85A46405D0F9990476D1C761C5D
:102410005545F6DB04E030205A460F999047761C6C
:10242000B8F10001A8F10108F5DC05E019F8010B8D
:102430005A460F999047761C0899481E0890002923
:10244000F4DC641CC5E60000092801003031323399
:1024500034353637383961626364656600000000E0
:1024600030313233343536373839414243444546CA
:102470000000000038B504460D46E0B200904FF66B
:10248000FF73012269460248FEF7F6FF204638BD79
:102490001C000020FFF77EFBFFF7EEFDFFF7E4FADC
:1024A000FDF718FFFFF7A4F816A0FFF747FEFFF7A8
:1024B000FDFD20490880FFF71FFE1F4908601D48E9
:1024C00001881EA0FFF73AFE1B48016825A0FFF710
:1024D00035FE2EA0FFF732FE38A0FFF72FFE1023A7
:1024E00042A218210A20FFF71FFA44A0FFF726FE98
:1024F000FFF76EF94EA0FFF721FE02E06420FDF722
:102500000DFFFBE72A2A2A2A2A2A2A2A2A53504977
:102510002D464C4153482D4558414D504C452D4278
:102520004547494E2A2A2A2A2A2A2A2A2A2A200DB7
:102530000A00000010000020140000205B20206D25
:1025400061696E5D696E666F203A2057323551328F
:1025500035365F44657669636549443A20257820BD
:102560000D0A00005B20206D61696E5D696E666F0B
:10257000203A20573235513235365F4A65646563FB
:1025800049443A202578200D0A0000002A2A2A2AE8
:102590002A2A2A2A2A5350492D464C4153482D4570
:1025A00058414D504C452D454E442A2A2A2A2A2A64
:1025B0002A2A2A2A200D0A0D0A0000002A2A2A2A7D
:1025C0002A2A2A2A2A5350492D4F4C45442D455832
:1025D000414D504C452D424547494E2A2A2A2A2A28
:1025E0002A2A2A2A2A200D0A00000000302E393615
:1025F000206F6C65642073686F7700005B20206D2E
:1026000061696E5D696E666F203A206F6C6564204B
:1026100073686F7720737472696E673A20302E3951
:1026200036206F6C65642073686F77200D0A000098
:102630002A2A2A2A2A2A2A2A2A5350492D4F4C4527
:10264000442D4558414D504C452D454E442A2A2A8B
:102650002A2A2A2A2A2A2A200D0A0D0A0000000006
:102660000000000000000000010203040607080942
:102670000000000001020304000000000000000050
:1026800000000000000000003F40000000000000CB
:1026900000003000400030004000000009000BC086
:1026A0003D000BC03D00090018C024407FE02240DF
:1026B00031800000180024C01B000D8032400180D2
:1026C00003801C4027401C80074000401000600031
:1026D00000000000000000000000000000001F805B
:1026E000204040200000402020401F8000000000CB
:1026F000090006001F800600090000000400040015
:102700003F80040004000000001000600000000092
:1027100000000000040004000400040004000000A5
:10272000000000400000000000000000002001C088
:1027300006003800400000001F802040204020405C
:102740001F800000000010403FC00040000000005B
:1027500018C0214022402440184000001080204032
:10276000244024401B80000002000D0011003FC0E7
:10277000014000003C80244024402440238000008D
:102780001F8024402440344003800000300020009B
:1027900027C03800200000001B8024402440244033
:1027A0001B8000001C0022C0224022401F8000002D
:1027B00000000000084000000000000000000000D1
:1027C0000460000000000000000004000A00110086
:1027D00020804040090009000900090009000000AC
:1027E00000004040208011000A0004001800200072
:1027F00023402400180000001F802040274029406B
:102800001F400000004007C039000F0001C0004019
:1028100020403FC0244024401B8000001F802040F7
:10282000204020403080000020403FC02040204019
:102830001F80000020403FC024402E4030C00000D8
:1028400020403FC024402E00300000000F001080C8
:10285000204022403380020020403FC0040004009A
:102860003FC02040204020403FC02040204000008A
:102870000060202020203FC02000200020403FC0DA
:1028800024400B0030C0204020403FC0204000408A
:10289000004000C03FC03C0003C03C003FC00000FF
:1028A00020403FC00C4023003FC020001F8020403C
:1028B000204020401F80000020403FC024402400D2
:1028C000180000001F802140214020E01FA00000D0
:1028D00020403FC02440260019C0004018C02440BA
:1028E0002440224031800000300020403FC0204082
:1028F0003000000020003F80004000403F8020006A
:1029000020003E0001C0070038002000380007C04A
:102910003C0007C038000000204039C0060039C024
:10292000204000002000384007C038402000000050
:10293000304021C02640384020C000000000000088
:102940007FE0402040200000000070000C00038069
:10295000004000000000402040207FE00000000018
:1029600000002000400020000000000000100010C7
:1029700000100010001000100000000040000000D7
:1029800000000000000002800540054003C0004038
:1029900020003FC00440044003800000000003808A
:1029A000044004400640000000000380044024402E
:1029B0003FC0004000000380054005400340000088
:1029C000000004401FC0244024402000000002E01A
:1029D000055005500650042020403FC0044004002C
:1029E00003C000400000044027C000400000000079
:1029F00000100010041027E00000000020403FC03D
:102A00000140070004C00440204020403FC0004077
:102A10000040000007C0040007C0040003C000001D
:102A2000044007C00440040003C0004000000380CD
:102A30000440044003800000041007F004500440E8
:102A400003800000000003800440045007F00010E1
:102A5000044007C0024004000400000000000640DB
:102A60000540054004C00000000004001F80044031
:102A700000400000040007800040044007C0004000
:102A80000400070004C0018006000400060001C025
:102A9000070001C006000000044006C0010006C097
:102AA000044000000410071004E001800600040048
:102AB0000000044005C00640044000000000000083
:102AC00004007BE040200000000000000000FFF058
:102AD00000000000000040207BE004000000000037
:102AE0004000800040002000200040000000000066
:102AF00000000000000000000000000000000000D6
:102B000000001FCC000C00000000000000000800C6
:102B1000300060000800300060000000022003FC6C
:102B20001E20022003FC1E200220000000000E18C0
:102B300011043FFF10840C78000000000F00108487
:102B40000F3800C0077818840078000000780F84E0
:102B500010C411240E9800E40084000808006800E6
:102B600070000000000000000000000000000000F5
:102B7000000007E018182004400200000000400296
:102B80002004181807E00000000000000240024086
:102B900001800FF0018002400240000000800080B0
:102BA00000800FF800800080008000000001000D10
:102BB000000E000000000000000000000000008087
:102BC0000080008000800080008000800000000CF9
:102BD000000C0000000000000000000000000006E3
:102BE000001800600180060018002000000007F0B7
:102BF000080810041004080807F00000000008048A
:102C000008041FFC000400040000000000000E0C7B
:102C100010141024104411840E0C000000000C1835
:102C200010041104110412880C700000000000E070
:102C30000320042408241FFC0024000000001F9827
:102C4000108411041104108810700000000007F0B7
:102C500008881104110418880070000000001C008E
:102C6000100010FC13001C001000000000000E38C3
:102C700011441084108411440E3800000000070035
:102C8000088C10441044088807F000000000000081
:102C90000000030C030C0000000000000000000016
:102CA000000101060000000000000000000000809C
:102CB0000140022004100808100400000220022035
:102CC0000220022002200220022000000000100446
:102CD00008080410022001400080000000000E00DF
:102CE0001200100C106C10800F00000003E00C1894
:102CF00013E4142417C4082807D000000004003C83
:102D000003C41C40074000E4001C000410041FFC26
:102D10001104110411040E880070000003E00C1867
:102D200010041004100410081C10000010041FFCF4
:102D3000100410041004080807F0000010041FFC21
:102D40001104110417C410040818000010041FFC1B
:102D50001104110017C010000800000003E00C1857
:102D60001004100410441C780040000010041FFCE4
:102D700010840080008010841FFC100400001004E8
:102D800010041FFC100410040000000000030001E8
:102D9000100110011FFE10001000000010041FFCA5
:102DA000110403801464181C1004000010041FFC9C
:102DB0001004000400040004000C000010041FFCB8
:102DC0001F0000FC1F001FFC1004000010041FFC6B
:102DD0000C04030000E010181FFC100007F00808A6
:102DE000100410041004080807F0000010041FFC71
:102DF00010841080108010800F00000007F0081869
:102E000010241024101C080A07F2000010041FFCF4
:102E10001104110011C011300E0C000400000E1C32
:102E200011041084108410441C3800001800100095
:102E300010041FFC100410001800000010001FF800
:102E400010040004000410041FF8100010001E00FD
:102E500011E0001C007013801C0010001FC0103C0B
:102E600000E01F0000E0103C1FC000001004180C20
:102E7000163401C001C01634180C100410001C00D8
:102E8000130400FC13041C00100000000804101CB4
:102E90001064108413041C041018000000000000CB
:102EA00000007FFE400240024002000000003000AF
:102EB0000C0003800060001C0003000000004002C2
:102EC000400240027FFE0000000000000000000001
:102ED00020004000400040002000000000010001F0
:102EE000000100010001000100010001000040009C
:102EF00040002000000000000000000000000098DA
:102F0000012401440144014400FC000410001FFCA2
:102F100000880104010400880070000000000070B7
:102F20000088010401040104008800000000007012
:102F300000880104010411081FFC0004000000F8CF
:102F4000014401440144014400C8000000000104A0
:102F500001040FFC1104110411001800000000D638
:102F600001290129012901C90106000010041FFCE3
:102F7000008401000100010400FC000400000104C1
:102F8000190419FC00040004000000000000000304
:102F900000010101190119FE0000000010041FFCCE
:102FA0000024004001B4010C0104000000001004E2
:102FB00010041FFC0004000400000000010401FCD8
:102FC0000104010001FC0104010000FC010401FCFA
:102FD000008401000100010400FC0004000000F86E
:102FE000010401040104010400F80000010101FFD3
:102FF00000850104010400880070000000000070DA
:10300000008801040104010501FF0001010401041D
:1030100001FC00840104010001800000000000CCDC
:103020000124012401240124019800000000010072
:10303000010007F80104010400000000010001F88C
:10304000000400040004010801FC000401000180E8
:103050000170000C001001600180010001F0010C02
:10306000003001C00030010C01F00100000001043B
:10307000018C00740170018C0104000001010181C8
:103080000171000E00180160018001000000018440
:10309000010C013401440184010C00000000000017
:1030A0000000000001003EFC400240020000000061
:1030B00000000000FFFF00000000000000004002D0
:1030C00040023EFC01000000000000000000600023
:1030D0008000800040004000200020000000000030
:1030E00000000000000000000000000000000000E0
:1030F00000000000000000000000000000000000D0
:103100000000000000000000000000000000000FB0
:1031100080380FFE380F80380000000000000000EB
:103120000000000000000000000001000006000098
:103130000C00003800003100000600000C000038D0
:103140000000300000000000000000006180006707
:10315000F807F98000618000618000618000618073
:103160000067F807F980006180000000000000009F
:10317000000001C0E003E0F00630080418081FFF5B
:10318000FE040E080787F00381E000000000000045
:1031900001F000060C00040408060C7001F9C000E0
:1031A0000E00003BE000EC18070808040C180003B0
:1031B000E00000000001E00007F003F818041C081C
:1031C00004170807E1D003C0E00023B0003C08006A
:1031D0002008000010000000000000010000310085
:1031E000003200001C000000000000000000000091
:1031F00000000000000000000000000000000000CF
:103200000000000000000000000000007F0001FF3F
:10321000C00780F00C00181000042000020000001D
:103220000000002000021000040C00180780F001CC
:10323000FFC0007F00000000000000000000000050
:103240000000000000000000420000660000660070
:10325000003C0000180003FFC0001800003C000004
:103260006600006600004200000000000800000840
:103270000000080000080000080001FFC00008006E
:10328000000800000800000800000800000000001E
:10329000000100003100003200001C0000000000AE
:1032A000000000000000000000000000000000001E
:1032B00000000000080000080000080000080000EE
:1032C00008000008000008000008000008000008CE
:1032D000000000000000000000000000380000387E
:1032E00000003800000000000000000000000000A6
:1032F00000000000000000000000000000060000C8
:103300001C000070000180000E0000380000C000AA
:103310000700001C0000300000000000000000005A
:103320007F8001FFE003807006001804000804009D
:103330000806001803807001FFE0007F8000000095
:10334000000000000000010008010008010008035F
:10335000FFF807FFF8000008000008000008000060
:103360000000000000000001C03802C058040098AE
:10337000040118040218040418061C1803F81801A4
:10338000E0F800000000000000000001C0E003C001
:10339000F004000804080804080806180803F418D4
:1033A00001E7F00001E00000000000000000000064
:1033B0000300000D000011000061000081080301FE
:1033C0000807FFF80FFFF8000108000108000000DF
:1033D0000000000000E007FCD00608080610080600
:1033E0001008061008061838060FF00607C000007F
:1033F00000000000000000003F8001FFE003843077
:103400000208180410080410080410080718100314
:103410000FF00007C000000000000000000003C023
:10342000000700000600000600F80607F80618006E
:1034300006E0000700000600000000000000000198
:10344000E1E003F7F0063410041808041808040C2F
:1034500008040C0806161803F3F001C1E000000090
:1034600000000000F80003FC3003063804020804E2
:1034700002080402080404100308F001FFC0007FE2
:10348000000000000000000000000000000000003C
:103490000000000070380070380070380000000034
:1034A000000000000000000000000000000000001C
:1034B0000000000000000000301A00301C00000076
:1034C00000000000000000000000000000000000FC
:1034D00000000008000014000022000041000080ED
:1034E00080010040020020040010080008000000D5
:1034F0000000000021000021000021000021000048
:1035000021000021000021000021000021000021F5
:103510000000000000000000000008000804001087
:1035200002002001004000808000410000220000D5
:10353000140000080000000000000003C00004C0E8
:1035400000040000080038080F3808083808100088
:103550000C300007E00003C0000000000000000085
:103560003F8000FFE0038070020F1006708804C0E7
:1035700088048308047F8802C09003012000FE4075
:103580000000080000180001F8003E0801C2000712
:10359000020007E20000FE00001FC80001F8000062
:1035A0003800000804000807FFF807FFF8040808BF
:1035B00004080804080804080806180803F4180199
:1035C000E7F00001E0000000000000003F8001FF84
:1035D000E0038070020018040008040008040008DA
:1035E0000400100600200780C00000000400080747
:1035F000FFF807FFF80400080400080400080400AE
:103600001802001003807001FFE0007F80000000BE
:1036100004000807FFF807FFF80408080408080476
:103620000808040808043E08040008060018010001
:103630006000000004000807FFF807FFF80408080E
:10364000040800040800040800043E000600000608
:103650000000018000000000000000003F8001FF2A
:10366000E003807006001804000804020804020841
:103670000203F00783F000020000020004000807C4
:10368000FFF807FFF8040808000800000800000819
:103690000000080004080807FFF807FFF804000806
:1036A00000000000000004000804000804000807EF
:1036B000FFF807FFF80400080400080400080000F1
:1036C00000000000000000000006000007000001EC
:1036D00004000104000104000307FFFE07FFFC04CF
:1036E000000004000004000004000807FFF807FFC2
:1036F000F8040C08001800003E0004C7800503C849
:103700000600F80400380400180000080400080748
:10371000FFF807FFF8040008000008000008000098
:103720000800000800000800001800006000000009
:1037300004000807FFF807800807FC00007FC000AE
:1037400003F80007C000780007800807FFF807FFAC
:10375000F804000804000807FFF807000803C00089
:1037600000E000003800001E000007000001C00457
:1037700000F007FFF8040000000000007F8001FF58
:10378000E003807006001804000804000806001812
:1037900003003001FFE0007F800000000400080704
:1037A000FFF807FFF80404080404000404000404FC
:1037B00000040400060C0003F80001F00000000003
:1037C000000000007F8001FFE00380700600880495
:1037D00000880400C806003C03003E01FFE6007FAD
:1037E0008400000004000807FFF807FFF804080839
:1037F000040800040C00040F00040BC00610F003C2
:10380000F03801E00800000800000001E0F803F0D3
:1038100030063010041808041808040C08040C08BA
:103820000206180207F00781E00000000180000690
:10383000000004000004000004000807FFF807FF70
:10384000F8040008040000040000060000018000E5
:1038500004000007FFE007FFF00400180000080064
:10386000000800000800000800000804001007FF1E
:10387000E004000004000006000007E00007FE006E
:10388000041FE00001F80000380001E0043E0007DA
:10389000C00006000004000004000007E00007FF6D
:1038A000C0041FF80007C007F80007FF80043FF8B6
:1038B0000007C004F8000700000400000000000436
:1038C000000806001807C07805F1C8003E00001F78
:1038D000800463E80780F806001804000800000070
:1038E00004000006000007800007E008047C0800D0
:1038F0001FF80007F800180804E008070000060099
:10390000000400000000000100080600380400F870
:103910000403E8040F08047C0805F00807C0080742
:10392000001804006000000000000000000000001B
:10393000000000000000003FFFFE20000220000207
:103940002000022000022000020000000000000011
:10395000000008000007000000C00000380000065A
:10396000000001C000003000000E00000100000057
:1039700000000000000020000220000220000220C1
:1039800000022000023FFFFE0000000000000000D7
:10399000000000000000000000000000000800001F
:1039A000100000300000200000300000100000086F
:1039B0000000000000000000000001000001000005
:1039C00001000001000001000001000001000001F1
:1039D00000000100000100000100000100000000E3
:1039E0000000000000200000200000100000100077
:1039F00000000000000000000000000000000000C7
:103A00000000000000F00019F8001B180022080058
:103A10002608002408002410003FF8001FF80000CA
:103A20000800001800000004000007FFF80FFFF076
:103A300000181800100800200800200800301800A6
:103A40001FF0000FC00000000000000007C0001FB2
:103A5000F0001830002008002008002008003C0872
:103A6000001C1000006000000000000000000000CA
:103A700007C0001FF00038180020080020080020B0
:103A80000804101007FFF80FFFF0000010000000FE
:103A90000000000000000007C0001FF0001230000E
:103AA0002218002208002208003208001E10000E12
:103AB0002000000000000000200000200800200876
:103AC00001FFF803FFF80620080420080420080777
:103AD000200003000000000000000000000E000EA7
:103AE0006E001FF30031B10020B10020B100319110
:103AF000001F13002E1E00200E00300000000004E6
:103B0000000807FFF80FFFF8001008002000002051
:103B100000002008003FF8001FF800000800000027
:103B20000000000000000020080020080020080617
:103B30003FF8063FF80000080000080000080000F9
:103B4000000000000000000000000000030000036F
:103B5000002001002001002003063FFE063FFC007C
:103B6000000000000000000000000004000807FF43
:103B7000F80FFFF8000188000300002FC00038F89C
:103B800000203800200800000800000000000000AD
:103B9000000004000804000804000807FFF80FFFF5
:103BA000F800000800000800000800000000000005
:103BB000002008003FF8003FF80010080020000037
:103BC0003FF8003FF8001008002000003FF8003FD9
:103BD000F8000008000000002008003FF8003FF84F
:103BE000001008001000002000002008003FF8002E
:103BF0001FF80000080000000000000007C0000FD0
:103C0000F0001830003008002008002008003008BC
:103C1000001830000FF00007C00000000000000096
:103C20002001003FFF003FFF00101100200900208D
:103C300008002008003038001FF0000FC00000000E
:103C40000000000007C0001FF00038180020080026
:103C50002008002009001011001FFF003FFF000096
:103C600001000000002008002008002008003FF8A4
:103C7000003FF8000808001008002008002000009D
:103C80003000003000000000000000000000000CC8
:103C900078001E180033080023080021080021883E
:103CA0000021980030F000386000000000000000A3
:103CB000200000200000200000FFF003FFF800209B
:103CC000080020080020080000300000000000006C
:103CD000000000002000003FF0007FF80000180006
:103CE0000008000008002010003FF8007FF00000EE
:103CF00010000000000000002000003000003C0028
:103D0000003F800023F00000780000700023800056
:103D10003C00003000002000002000003C00003F7C
:103D2000E00023F80000E0002700003E00003FE034
:103D30000021F80001E0003E00002000000000002B
:103D40002008002008003838003E68002780000363
:103D5000C8002CF8003838002018002008000000A7
:103D6000000000002000003003003C01003F830001
:103D700023EC000070002380003C000020000020A5
:103D8000000000000000000000000038080020389B
:103D90000020F80023E8002F88003E0800380800C3
:103DA000201800007000000000000000000000006B
:103DB000000000000000000008000014001FF7FCD5
:103DC000300006200002000000000000000000009B
:103DD0000000000000000000000000000000FFFFE5
:103DE000FF000000000000000000000000000000D4
:103DF0000000000000002000023000061FF7FC0059
:103E00001400000800000000000000000000000096
:103E100000000000000000180000600000400000EA
:103E20004000002000001000000800000400000412
:103E300000000C0000100000583E000800000020A8
:103E40001C00000094210008743E00081C000020A3
:103E5000F4080000A42100080024F4000000000081
:103E60001000000001000000000000000000000041
:043E7000000000004E
:04000005080001AD41
:00000001FF
