:020000040800F2
:10000000A8040020C10100086D160008EF150008C3
:1000100069160008690900081D1D0008000000009D
:100020000000000000000000000000007116000841
:100030006D090008000000006F1600087316000824
:10004000DB010008DB010008DB010008DB01000820
:10005000DB010008DB0100086F090008DB01000874
:10006000DB010008DB010008DB010008DB01000800
:10007000DB010008DB010008DB010008DB010008F0
:10008000DB010008DB010008DB010008DB010008E0
:10009000DB010008DB010008DB010008DB010008D0
:1000A000DB010008DB010008DB010008DB010008C0
:1000B000DB010008DB010008DB010008DB010008B0
:1000C000DB010008DB010008DB010008DB010008A0
:1000D000DB010008191C0008DB010008DB01000837
:1000E000DB010008DB010008DB010008DB01000880
:1000F000DB010008DB010008DB010008DB01000870
:10010000DB010008DB010008DB010008DB0100085F
:10011000DB010008DB010008DB010008DB0100084F
:10012000DB010008DB010008DB010008DB0100083F
:10013000DB010008DB010008DB010008DB0100082F
:10014000DB010008DB010008DB010008DB0100081F
:10015000DB010008DB010008DB010008DB0100080F
:10016000DB010008DB010008DB010008DB010008FF
:10017000DB010008DB010008DB01000800000000D3
:10018000DB010008DB010008DB010008DB010008DF
:10019000DB010008DB010008DB010008DB010008CF
:1001A000DB010008DB010008DB010008DFF80CD0F0
:1001B00000F006FB004800476D260008A804002058
:1001C0000648804706480047FEE7FEE7FEE7FEE7F1
:1001D000FEE7FEE7FEE7FEE7FEE7FEE77D16000826
:1001E000AD0100082DE9F05F0546002092469B46D0
:1001F00088460646814640241BE02846414647463D
:10020000224600F062F953465A46C01A914110D373
:1002100011461846224600F049F92D1A67EB0108ED
:100220004F4622460120002100F040F917EB00095B
:100230004E41201EA4F10104DFDC484631462A4627
:100240004346BDE8F09F2DE9FE4F81EA030404F028
:10025000004421F0004100944FF0000B23F00043D4
:1002600050EA01045ED052EA03045BD0C3F30A549F
:10027000C1F30A552C44A4F2F3340194A0FB0254B8
:10028000C1F3130141F48011C3F3130343F480134A
:1002900001FB024400FB034E840A970A44EA81549E
:1002A00047EA8357A4FB076802958D0A05FB07857B
:1002B0004FEA932C04FB0C542705029D4FEA065885
:1002C00047EA1637B5EB08056EEB070C870E920E62
:1002D00047EA811742EA8312A7FB0201B6EB0B0142
:1002E00064EB00042B0D43EA0C335E1844EB1C5006
:1002F000DA465146E7FB0201C5F313044FEA0B331C
:1003000043EA14534FEA0432019C43EA0603A4F182
:100310000C040294009CCDE900B400F02CF903B069
:10032000BDE8F08F00200146F9E72DE9F04D81EAA4
:10033000030404F0004B21F0004514464FF0000A7E
:1003400023F0004150EA050220D054EA01021DD0FA
:10035000C5F30A570246C5F31303C1F31300C1F3F3
:100360000A5640F4801543F48013A7EB0608101BCF
:10037000D64608F2FD3873EB050002D308F10108F8
:1003800001E092185B41B8F1000F03DA002001464A
:10039000BDE8F08D00204FF48011064684460EE043
:1003A000171B73EB050705D3121B63EB050306430D
:1003B0004CEA010C49084FEA300092185B4150EAC0
:1003C0000107EDD152EA030012D082EA040083EA69
:1003D0000501084305D0101BAB4106D201220023C2
:1003E00006E000224FF0004302E06FF001025310DC
:1003F0001AEB06004CEB085110EB0A0041EB0B0125
:10040000BDE8F04D00F0A8B80EB540F233410291BE
:100410000021CDE900110A460B4600F0ACF803B00C
:1004200000BD00F0004230F000400AD0C10D01F5DF
:100430006071C0F3160042EA0151C208400711433F
:10044000704700200146704701F0004330B421F0AE
:10045000004150EA010206D00A0DA2F56072C1F314
:100460001301002A02DC30BC00207047440F44EA2C
:10047000C104C100E01830BC00EBC25000F035B838
:1004800030B50B46014600202022012409E021FA64
:1004900002F59D4205D303FA02F5491B04FA02F561
:1004A0002844151EA2F10102F1DC30BD202A04DB34
:1004B000203A00FA02F1002070479140C2F1200377
:1004C00020FA03F3194390407047202A04DB203AB6
:1004D00021FA02F00021704721FA02F3D040C2F164
:1004E000200291400843194670470029A8BF704771
:1004F000401C490008BF20F00100704710B4B0FA5A
:1005000080FC00FA0CF050EA010404BF10BC7047F4
:1005100049B1CCF1200421FA04F411FA0CF118BF0E
:10052000012121430843A3EB0C01CB1D4FEA0061DD
:100530004FEA102042BF002010BC704700EBC350B0
:1005400010440029A4BF10BC7047401C490008BFDC
:1005500020F0010010BC704710B5141E73F10004A8
:1005600008DA401C41F1000192185B411A4301D1A5
:1005700020F0010010BD2DE9F04D92469B4611B1CF
:10058000B1FA81F202E0B0FA80F220329046FFF731
:100590008DFF04460F4640EA0A0041EA0B0153462C
:1005A0005A46084313D0114653EA010019D0C8F146
:1005B00040025046FFF789FF05460E465046594611
:1005C0004246FFF773FF084305D0012004E02046B0
:1005D0003946BDE8F08D0020054346EAE0762C431D
:1005E00037430A986305E40AA0EB08000022FD0ADD
:1005F00044EA47540A3002D500200146E9E70105E4
:1006000010196941DDE9084500196941BDE8F04D5F
:10061000A2E72DE9FE4F804681EA0300C00F0C4699
:10062000009021F0004123F00045B8EB0200A94101
:1006300005D24046214690461C460B46024623F012
:100640000040104347D0270DC7F30A00C3F30A51F7
:100650000290401A019040286BDAC3F3130040F473
:10066000801B0098924620B10023D2EB030A63EB73
:100670000B0B01985946C0F140025046FFF716FF98
:1006800006460D4650465946019A00F0ABF810EB6D
:1006900008006141002487EA115284EAE7731A4393
:1006A00040D0009A62B3019A012A4FEA075215DC42
:1006B000001B61EB02014FF0004202EA0752CDE954
:1006C0000042001C41F5801132462B46FFF753FFD4
:1006D00003B0BDE8F08F40462146F9E7001B61EB0F
:1006E0000201001C41F5801300185B412018A2F59F
:1006F000001747EB030140EAD570B6196D4111E0D0
:100700006D084FEA360645EAC0754FEA0752001BEE
:1007100061EB0201001C41F5801149084FEA3000ED
:100720000019514132462B4603B0BDE8F04FFFF7A8
:1007300013BF0098012240000023D0EB020263EBBC
:10074000E073009821464FEAE074B8EB000061EBDB
:100750000401E9E783F000435BE781F0004158E7DB
:10076000C1F30A52C1F3130140F2FF3341F4801187
:100770009A4202DA00200146704740F233439A421F
:10078000A2F2334202DC5242FFF79FBEFFF78EBE59
:1007900030B5041E71F1000404DB4FF00044404208
:1007A00064EB0101141E73F1000405DB1C464FF0DD
:1007B0000043524263EB0403994208BF904230BDAC
:1007C000064C074D06E0E06840F0010394E807009E
:1007D00098471034AC42F6D3FFF7ECFC3027000802
:1007E00050270008202A06DBCB17203A41FA02F0F6
:1007F00043EAE07306E041FA02F3D040C2F120027E
:10080000914008431946704755494A6822F44032DE
:100810004A604A6843681A434A600268526822F490
:10082000807203685A6002685368026943EA0222D0
:1008300003685A600268526822F0407203685A6086
:100840000268526883681A4303685A6002689268B3
:1008500022F4006203689A6002689268C3681A43CF
:1008600003689A603F4B826A9A4218D00268926885
:1008700022F0706203689A6002689268836A1A4381
:1008800003689A600268926822F0405203689A6096
:1008900002689268C36A1A4303689A600BE00268B0
:1008A000926822F0706203689A600268926822F08F
:1008B000405203689A600268926822F0020203685C
:1008C0009A6002689368027E43EA420203689A6073
:1008D0002022125CA2B10268526842F400620368EE
:1008E0005A600268526822F4604203685A600268E3
:1008F0005368426A521E43EA423203685A6005E076
:100900000268526822F4006203685A600268D26A80
:1009100022F470020368DA620268D36A828B521E84
:1009200043EA02520368DA620268926822F40072B3
:1009300003689A600268936890F8302043EA422284
:1009400003689A600268926822F4806203689A6081
:1009500002689368426943EA822203689A6070479A
:10096000002301400100000F00BFFEE7704710B5F3
:10097000012000F09FFA10BD2DE9F04107460C461A
:100980000025002608E0384600F00EF8284485B21D
:10099000052000F079FA761CA642F4DB95FBF4F012
:1009A00080B2BDE8F08100001FB50446009401202C
:1009B000019007200290002003906946074800F04C
:1009C0000FF8064800F0AEF90A21044800F048F993
:1009D000024800F0D7F880B204B010BD60000020DB
:1009E00038B502460020009000BF92F83C00012874
:1009F00001D1022038BD012082F83C0000BF086808
:100A0000092816D91068C0680C780A3C04EB440524
:100A10000724AC40A0431468E0600C780A3C04EB67
:100A200044048868A0401468E46820431468E060C7
:100A300013E0106800690C7804EB44050724AC400F
:100A4000A043146820610C7804EB44048868A0403B
:100A5000146824692043146820614868072817D265
:100A60001068406B0C79641E04EB84051F24AC40B5
:100A7000A04314686063088880B20C79641E04EB9C
:100A80008404A0401468646B20431468606331E000
:100A900048680D2817D21068006B0C79E41F04EB2E
:100AA00084051F24AC40A04314682063088880B2EA
:100AB0000C79E41F04EB8404A0401468246B2043E9
:100AC0001468206316E01068C06A0C790D3C04EBD2
:100AD00084051F24AC40A0431468E062088880B2FB
:100AE0000C790D3C04EB8404A0401468E46A2043B4
:100AF0001468E0621E4B1F4C1068A0420AD10868BF
:100B0000122807D1586820F400005860586840F453
:100B100080005860174C1068A04222D1164C08681B
:100B2000A04202D0086811281BD1586820F4800028
:100B30005860586840F4000058600F4C0868A042A4
:100B40000FD10E4800680E4CB0FBF4F000EB8000B3
:100B50004000009002E00098401E0090009800289D
:100B6000F9D100BF002082F83C0000BF00BF41E780
:100B7000002301400020014012000010000000206E
:100B800040420F0001460868C06C704770B50446CB
:100B900000250CB9012070BD1549A06A884200D01B
:100BA00000BF206C30B9204600F024F800206064BB
:100BB00084F83C00206C00F0100088B9206C20F410
:100BC000885040F0020020642046FFF71DFE002000
:100BD0006064206C20F0020040F00100206400E01E
:100BE000012500BF002084F83C0000BF2846D2E762
:100BF0000100000F10B586B0044600BF0020009031
:100C00001548006840F48070134908600846006881
:100C100000F48070009000BF00BF00BF0020009073
:100C20000D481438006840F001000B491439086081
:100C30000846006800F00100009000BF00BF2020BF
:100C40000190032002900020039001A9034800F0C6
:100C50003FF906B010BD00004438024000000240D9
:100C600070B504460D4600262068806800F4806058
:100C7000B0F5806F11D12068806800F48070B0F505
:100C8000807F0AD1206C40F02000206400BF00204B
:100C900084F83C0000BF012070BD00F027FA064632
:100CA00012E0681C80B125B100F020FA801BA84238
:100CB0000AD9206C40F00400206400BF002084F8B2
:100CC0003C0000BF0320E7E72068006800F0020056
:100CD0000228E6D16FF0120021680860206C40F411
:100CE000007020642068806800F04050B8B9207E11
:100CF000A8B92068C06A00F4700020B1206880683C
:100D000000F4806058B9206C20F480702064206C5E
:100D100000F4805018B9206C40F0010020640020DD
:100D2000BAE7000008B501460020009000BF91F826
:100D30003C00012801D1022008BD012081F83C00BF
:100D400000BF0868806800F00100A0B908688068EA
:100D500040F001000B6898603B4800683B4BB0FBDB
:100D6000F3F000EB4000009002E00098401E00907D
:100D700000980028F9D10868806800F00100002878
:100D80005FD0086C40F20163984340F480700864BF
:100D90000868406800F4806028B1086C20F40050B6
:100DA00040F480500864086C00F48050B0F5805F17
:100DB00004D1486C20F00600486401E0002048643B
:100DC00000BF002081F83C0000BF214A6FF02200E4
:100DD0000B681860506800F01F0018BB1D4B0868B6
:100DE000984213D01C4B0868984204D1101D00682B
:100DF00000F01F0050B1194B0868984221D11448E7
:100E0000001D006800F01F0010281AD208688068D2
:100E100000F0405028B90868806840F080400B68B6
:100E200098600EE00B4B086898420AD10868806809
:100E300000F0405028B90868806840F080400B6896
:100E40009860002078E700000000002040420F007A
:100E50000023014000200140002101400022014008
:100E6000014691F83500022803D080204865012012
:100E70007047052081F835000868006820F00100FF
:100E80000A6810600020F3E770B5044600F02EF900
:100E900006462546681C10B104480078054400BF8A
:100EA00000F024F9801BA842FAD370BD0C0000208A
:100EB0007047000010B5044604480068204020B187
:100EC000024804602046FFF7F3FF10BD143C0140C8
:100ED000F8B502460B460025002400200021E6E07C
:100EE000012606FA01F51E6806EA0504AC4273D134
:100EF0005E68022E02D05E68122E13D1CF0802F176
:100F0000200656F827004E07F70E0F26BE40B043C6
:100F10004F07FF0E1E69BE403043CF0802F1200686
:100F200046F8270010684F000326BE40B0431E79E4
:100F300006F003064F00BE40304310605E68012E8D
:100F400008D05E68022E05D05E68112E02D05E6861
:100F5000122E13D190684F000326BE40B0434F00BD
:100F6000DE68BE4030439060506801268E40B0433A
:100F70001E79C6F300168E4030435060D0684F0093
:100F80000326BE40B0434F009E68BE403043D06051
:100F90005E6806F08056B6F1805FA8D100BF0026DB
:100FA0000096454E366846F48046434F3E603E46C6
:100FB000366806F48046009600BF00BF3F4E8F089B
:100FC00056F827008E07370F0F26BE40B0433C4E21
:100FD000B24202D100262EE068E03A4EB24201D180
:100FE000012628E0384EB24201D1022623E0374ED6
:100FF000B24201D103261EE0354EB24201D1042691
:1010000019E0344EB24201D1052614E0324EB2420C
:1010100001D106260FE0314EB24201D107260AE087
:101020002F4EB24201D1082605E02E4EB24201D128
:10103000092600E00A268F073F0FBE4030431F4EAF
:101040008F0846F82700284E3068A0435E6806F4F3
:101050008036B6F5803F00D12043234E3060361DE8
:101060003068A0435E6806F40036B6F5003F00D154
:1010700020431D4E361D3060361D3068A0435E682B
:1010800006F48016B6F5801F00D12043164E0836B0
:101090003060361D3068A0435E6806F40016B6F571
:1010A000001F00D12043104E0C363060491C10291F
:1010B000FFF416AFF8BD0000443802400838014084
:1010C000000002400004024000080240000C024000
:1010D000001002400014024000180240001C0240B0
:1010E0000020024000240240003C0140014800680A
:1010F0007047000004000020034800680349097895
:101100000844014908607047040000200C000020DA
:1011100010B50D48006840F400700B49086008469F
:10112000006840F4806008600846006840F4807001
:101130000860032000F080F8002000F007F800F0BD
:101140002BF8002010BD0000003C024070B50446A2
:101150000E4800784FF47A71B1FBF0F00C49096841
:10116000B1FBF0F5284600F0A1F808B1012070BDF0
:10117000102C07D200222146501E00F01EF8054810
:10118000046001E00120F2E70020F0E70C000020FD
:101190000000002008000020704701460846002893
:1011A00009DB00F01F0301229A4043099B0003F171
:1011B000E023C3F8002100BF70472DE9F05F8046AF
:1011C0000D461646002700F0BBFD074639462A4665
:1011D000334601F00700C0F1070ABAF1040F02D943
:1011E0004FF0040A01E0C0F1070AD14600F1040AF9
:1011F000BAF1070F02D24FF0000A01E0A0F1030A92
:10120000D4464FF0010A0AFA09FAAAF1010A0AEAD9
:10121000020A0AFA0CFA4FF0010B0BFA0CFBABF1C5
:10122000010B0BEA030B4AEA0B042146404600F08F
:101230008FFDBDE8F09F000000BF00F00702064BE5
:1012400019684FF6FF031940044B0B4343EA022190
:10125000014B196000BF70470CED00E00000FA057B
:1012600001480068704700000000002000B5FFF74B
:10127000F7FF04490968C1F38221034A515CC84061
:1012800000BD0000083802402827000800B5FFF71D
:10129000E7FF04490968C1F34231034A515CC84081
:1012A00000BD0000083802402827000870B5044639
:1012B0002546681EB0F1807F01D301200FE0681E33
:1012C0004FF0E02148610F214FF0FF3000F040FD6A
:1012D00000204FF0E021886107200861002070BDE8
:1012E000704700002DE9F047044620680568206833
:1012F000C668206847694FF00008C14605F00F082E
:10130000B8F1000F0AD105F0200038B106F0200036
:1013100020B1204600F00EFABDE8F087B8F1000FCA
:101320006ED007F0010018B906F49070002867D05D
:1013300005F0010030B106F4807018B1E06B40F0A8
:101340000100E06305F0040030B107F0010018B1BE
:10135000E06B40F00200E06305F0020030B107F0FE
:10136000010018B1E06B40F00400E06305F00800F4
:1013700030B107F0010018B1E06B40F00800E06305
:10138000E06B70B305F0200028B106F0200010B12A
:10139000204600F0CFF920684069C0F38019E06B67
:1013A00000F0080010B9B9F1000F23D0204600F07A
:1013B000A1F92068406900F04000402816D120685B
:1013C000406920F0400021684861606B50B11748C7
:1013D000616B0865606BFFF743FD10B1606B016DD9
:1013E00088470CE02046FFF77BFF08E02046FFF728
:1013F00077FF04E02046FFF773FF0020E0638BE7F0
:1014000005F0800030B106F0800018B1204600F0F1
:1014100099FB81E705F0400030B106F0400018B1BB
:10142000204600F077F977E700BF75E7E11600087E
:1014300010B504460CB9012010BDA06900B100E050
:1014400000BF94F8390028B9002084F838002046FD
:1014500000F027F8242084F839002068C06820F4C0
:1014600000502168C860204600F0B8F92068006983
:1014700020F49040216808612068406920F02A002B
:10148000216848612068C06840F400502168C86045
:101490000020E063202084F8390084F83A0000201E
:1014A000CAE7704710B5034693F83A0020282FD1B9
:1014B00001B10AB9012010BD00BF93F8380001281E
:1014C00001D10220F7E7012083F8380000BF9962BC
:1014D0009A85DA850020D863222083F83A0000BF7D
:1014E000002083F8380000BF1868C06840F480709E
:1014F0001C68E0601868406940F001001C68606189
:101500001868C06840F020001C68E0600020D2E746
:101510000220D0E770472DE9F84304460D461646F1
:101520001F464FF0000994F8390020285CD105B11E
:1015300016B90120BDE8F88300BF94F838000128EF
:1015400001D10220F6E7012084F8380000BF002016
:10155000E063212084F83900FFF7C8FD8146A684A6
:10156000E6842BE0E08C401EE084A068B0F5805F4C
:1015700016D14B46002280212046009700F016FB32
:1015800008B10320D6E7A846B8F80000C0F3080069
:1015900021684860206908B9AD1C0FE06D1C0DE0A2
:1015A0004B46002280212046009700F0FFFA08B148
:1015B0000320BFE715F8010B21684860E08C002884
:1015C000D0D14B46002240212046009700F0EEFA91
:1015D00008B10320AEE7202084F8390000BF0020C6
:1015E00084F8380000BFA5E70220A3E7704700BFDA
:1015F000FEE7000010B50F480F4908604FF4803037
:10160000486000210C480176C16080F8201080F805
:1016100030104161094981620121C16100214162AB
:1016200081600161FFF7B2FA10B905A000F078FB04
:1016300010BD000000200140600000200100000FEC
:101640005B202020494E464F5D206164632E63205D
:101650003A204144433120496E697420446F6E65DD
:1016600021200D0A0000000000BFFEE77047704710
:10167000704710B5FFF740FD10BD0000144800682A
:1016800040F47000124908601248006840F0010000
:101690001049086000200F49083108600D480068B3
:1016A0000D4908400B4908600C48091D0860081FD7
:1016B000006820F48020091F0860002005490C31D3
:1016C00008604FF0006002498039086070470000F0
:1016D00088ED00E000380240FFFFF6FE10300024E5
:1016E00070B50546AC6B0020E085E0842046FFF72E
:1016F000F7FD70BD0168C96821F490710268D1607E
:101700000168496921F0010102685161202180F8D6
:101710003A10704710B504462068C06820F04000B9
:101720002168C860202084F839002046FFF75EFF5A
:10173000002010BD70B5044694F83A0022284AD122
:10174000A068B0F5805F13D1A56A206940B9206810
:101750004068C0F308002880A06A801CA06219E0DD
:1017600020684068C0B22880A06A401CA06211E0D6
:10177000206938B920684068C1B2A26A501CA062D2
:10178000117007E02068406800F07F01A26A501CD9
:10179000A0621170E08D401E80B2E085C8B920685B
:1017A000C06820F020002168C8602068C06820F46C
:1017B00080702168C8602068406920F001002168BD
:1017C0004861202084F83A002046FFF7A3FE00205D
:1017D00070BD0020FCE70220FAE700002DE9F0418F
:1017E00004462068006920F44050E16808432168FD
:1017F00008612169A068084361690843E16940EA1A
:1018000001052068C06849F20C61884328432168BB
:10181000C8602068406920F44070A16908432168CD
:101820004861E069B0F5004F7ED1C4492068884224
:1018300003D0C349206888425DD1FFF727FD00EB44
:10184000C00101EB001061684900B0FBF1F06421B8
:10185000B0FBF1F00601FFF719FD00EBC00101EB51
:10186000001061684900B0FBF1F7FFF70FFD00EBD6
:10187000C00101EB001061684900B0FBF1F0642188
:10188000B0FBF1F000EBC00101EB0010A7EB800012
:10189000322101EBC0006421B0FBF1F000F0F80050
:1018A00006EB4006FFF7F2FC00EBC00101EB001075
:1018B00061684900B0FBF1F7FFF7E8FC00EBC001FD
:1018C00001EB001061684900B0FBF1F06421B0FB4E
:1018D000F1F000EBC00101EB0010A7EB800032211A
:1018E00001EBC0006421B0FBF1F000F007003044D0
:1018F0002168886020E1FFF7B9FC00EBC00101EB33
:10190000001061684900B0FBF1F06421B0FBF1F018
:101910000601FFF7ABFC00EBC00101EB00106168B2
:101920004900B0FBF1F700E045E0FFF79FFC00EB5A
:10193000C00101EB001061684900B0FBF1F06421C7
:10194000B0FBF1F000EBC00101EB0010A7EB800051
:10195000322101EBC0006421B0FBF1F000F0F8008F
:1019600006EB4006FFF782FC00EBC00101EB001024
:1019700061684900B0FBF1F7FFF778FC00EBC001AC
:1019800001EB001061684900B0FBF1F06421B0FB8D
:10199000F1F000EBC00101EB0010A7EB8000322159
:1019A00001EBC0006421B0FBF1F000F0070030440F
:1019B00021688860C0E061492068884203D060499E
:1019C000206888425CD1FFF761FC00EBC00101EBAD
:1019D000001061688900B0FBF1F6FFF757FC00EBDF
:1019E000C00101EB001061688900B0FBF1F06421D7
:1019F000B0FBF1F000EBC00101EB0010A6EB8000A2
:101A0000322101EB00106421B0FBF1F000F0F00690
:101A1000FFF73CFC00EBC00101EB0010616889009E
:101A2000B0FBF1F06421B0FBF1F006EB0016FFF71C
:101A30002DFC00EBC00101EB001061688900B0FBD8
:101A4000F1F7FFF723FC00EBC00101EB0010616828
:101A50008900B0FBF1F06421B0FBF1F000EBC001B4
:101A600001EB0010A7EB8000322101EB0010642194
:101A7000B0FBF1F000F00F003044216888605BE0BB
:101A8000FFF7F4FB00EBC00101EB00106168890077
:101A9000B0FBF1F6FFF7EAFB00EBC00101EB001031
:101AA00061688900B0FBF1F06421B0FBF1F000EB5C
:101AB000C00101EB0010A6EB8000322101EB001009
:101AC0006421B0FBF1F000F0F006FFF7CFFB00EB74
:101AD000C00101EB001061688900B0FBF1F06421E6
:101AE000B0FBF1F006EB0016FFF7C0FB00EBC00106
:101AF00001EB001061688900B0FBF1F7FFF7B6FB5E
:101B000000EBC00101EB001061688900B0FBF1F04F
:101B10006421B0FBF1F000EBC00101EB0010A7EB7A
:101B20008000322101EB00106421B0FBF1F000F0E5
:101B30000F00304421688860BDE8F081001001404A
:101B400000140140014691F8390021282CD1886801
:101B5000B0F5805F0FD10A6A1088C0F308000B68E7
:101B60005860086918B9086A801C086209E0086AA8
:101B7000401C086205E00B6A581C086218780B6864
:101B80005860C88C401E80B2C88458B90868C068C4
:101B900020F080000B68D8600868C06840F0400002
:101BA0000B68D860002070470220FCE72DE9F04167
:101BB00004460D4617469846069E21E0701CF8B173
:101BC0002EB1FFF793FAA0EB0800B04218D92068B5
:101BD000C06820F4D0702168C8602068406920F097
:101BE000010021684861202084F8390084F83A0017
:101BF00000BF002084F8380000BF0320BDE8F0815A
:101C0000206800682840A84201D1012000E000209F
:101C1000B842D3D00020F1E710B50448FFF762FBCB
:101C2000012203490148FFF73DFC10BD20000020C0
:101C30001800002000B587B000BF00200190334895
:101C4000006840F01000314908600846006800F064
:101C50001000019000BF00BF2D482E4908604FF4CE
:101C6000E13048600C212B48416100218160C16056
:101C700081610161C161FFF7DBFB00BF00200190C2
:101C800022481438006840F00100204914390860E7
:101C90000846006800F00100019000BF00BF00BFCF
:101CA000002001900846006840F0010008600846E6
:101CB000006800F00100019000BF00BF48150290CD
:101CC0000220039001200490022005900720069036
:101CD00002A91148FFF7FCF84FF48060029002203F
:101CE000039001200490022005900720069002A98D
:101CF0000948FFF7EDF8002211462520FFF75DFAAD
:101D00002520FFF74AFA07B000BD00004438024022
:101D100000100140200000200000024000BFFEE74C
:101D20000FB4054B10B503A9044A029800F0F6F869
:101D300010BC5DF814FB00004D2600081C000020BC
:101D400002480068C0F30220704700000CED00E07C
:101D500010B5002804DB0A07130E054A135406E0E9
:101D60000A07140E034A00F00F031B1FD45410BDC2
:101D700000E400E018ED00E002E008C8121F08C10E
:101D8000002AFAD170477047002001E001C1121FFC
:101D9000002AFBD1704700002DE9FF5F82B00021CF
:101DA000DDE90430020DDDF840B0034318D044F6FD
:101DB0001050A2F2FF3242431514119801281FD08F
:101DC000A5EB0B00401C5FEA000A4FF000064E4FE7
:101DD000DFF83891B046504615D5CAF1000413E03B
:101DE000119801244AA3012801D16FEA0B0102983E
:101DF000119AC0E90031C0E9024206B0BDE8F09F87
:101E0000CBF10000DFE704460021404A491842EBCD
:101E10000450CDE9001012E0E00707D032463B46FF
:101E200040464946FEF70FFA8046894632463B4611
:101E300010461946FEF707FA06460F466410002CB6
:101E4000EAD1DDE90401DDE90023BAF1000F06DA89
:101E5000FEF7F9F942464B46FEF7F5F905E0FEF7C5
:101E600064FA42464B46FEF760FA04460E460022EC
:101E7000284BFEF78DFC03D84FF0FF30014607E0FA
:101E80000022254B20463146FEF7C3FBFEF768FCD7
:101E9000102409E0002C0ADB0A220023FEF7A2F935
:101EA000039B30321A55641E50EA0102F2D1641CC1
:101EB000039AC4F111031444119A012A03D0012298
:101EC00008430DD10AE0084304D000204FF0110B65
:101ED000119072E7A3EB0B056D1E0DE05B4504DD71
:101EE0004FF0000205F1010504E003DA4FF00002B3
:101EF000A5F10105002AECD002981199C0E9023140
:101F0000C0E9004579E70000000014400000F03F00
:101F1000300000000000F0430000E03F2DE9FF4FDB
:101F200095B09B468946064600250FE2252877D1C5
:101F300000242746F84A0121059400E0044316F8DE
:101F4000013F203B01FA03F01042F7D130782A28F4
:101F500011D06FF02F033078A0F13002092A16D883
:101F6000059A44F0020402EB820203EB42021044A1
:101F7000761C0590EFE759F8042B0592002A03DA46
:101F8000504244F40054059044F00204761C30782A
:101F90002E2816D116F8010F44F004042A280DD07B
:101FA0006FF02F023078A0F13003092B09D807EB2E
:101FB000870302EB4303C718761CF3E759F8047B49
:101FC000761C30786C280FD006DC4C2817D0682897
:101FD0000DD06A2814D104E0742810D07A280FD1CB
:101FE0000DE044F400140AE044F4801401E044F4E9
:101FF00040147278824202D104F58014761C761C5B
:10200000307866280BD013DC582877D009DC0028FC
:1020100075D04528F6D04628F4D047281AD19DE13E
:1020200018E0632835D0642879D0652812D195E16D
:10203000702873D008DC6728F1D069286FD06E282B
:102040000DD06F2806D1B5E073282CD0752875D037
:10205000782874D05A46179990476D1C75E1C4F3DF
:102060000250022809D003280DD0D9F80010042806
:102070000DD00D6009F1040967E1D9F80010EA17E5
:10208000C1E90052F6E7D9F800100D80F2E70D70B3
:10209000F0E719F8041B8DF8001000208DF80100FE
:1020A000EA46012003E059F804AB4FF0FF30610726
:1020B0004FF0000102D40DE008F101018846B94259
:1020C0000FDA8045F8DB1AF808100029F4D108E08F
:1020D00008F1010188468142FADB1AF8081000294C
:1020E000F6D105985B46A0EB080721463846179ABB
:1020F00000F094FA284400EB080507E04DE029E1E0
:102100000DE01AF8010B5A4617999047B8F10108EB
:10211000F7D25B4621463846179A13E142E00A227D
:102120000092C4F302524FF0000A022A08D059F874
:1021300004CB032A4FEAEC710AD00DE029E02AE033
:1021400009F1070121F00702F2E802C1914609E016
:102150000FFA8CFC4FEAEC71042A03D14FFA8CFC85
:102160004FEAEC71002907DA0A460021DCF1000C85
:1021700061EB02012D2202E0220504D52B228DF80D
:102180000420012203E0E20701D02022F7E7904675
:1021900059E00A2102E010220DE010214FF0000A60
:1021A00000910BE010224FF0000A44F004040827CD
:1021B000009203E008224FF0000A0092C4F302529A
:1021C000022A05D059F804CB0021032A08D009E0DF
:1021D00009F1070121F00702F2E802C1914605E08A
:1021E0001FFA8CFC042A01D10CF0FF0C4FF0000800
:1021F000220728D5702806D0009B83F0100353EAED
:102200000A0305D00EE040228DF80420012208E0E8
:102210005CEA010206D030228DF804208DF805001A
:1022200002229046009B83F0080353EA0A030AD176
:102230005CEA010201D1620705D530228DF8042045
:102240004FF001087F1E582804D034A003900EA838
:1022500002900DE036A0F9E753466046009AFDF77C
:10226000C1FF84460398825C0298401E029002706F
:102270005CEA0100F0D1029806A9081A00F1200AD0
:10228000600702D524F4803400E00127574502DDC1
:10229000A7EB0A0000E0002000EB0A01009005987F
:1022A0004144401A0590E00306D45B462146179A44
:1022B000059800F0B3F90544002706E001A85A4646
:1022C000C05D179990476D1C7F1C4745F6DBE00306
:1022D0000CD55B462146179A059800F09FF90544F6
:1022E00004E030205A46179990476D1C0099481E0B
:1022F00000900029F5DC08E0029802995A4600781F
:10230000491C0291179990476D1CBAF10001AAF17E
:10231000010AF1DC65E100000928010030313233A7
:102320003435363738396162636465660000000011
:1023300030313233343536373839414243444546FB
:102340000000000000F058F90544761C30780028A1
:102350007FF4ECAD19B02846BDE8F08F620700D4D9
:10236000062709F1070222F0070CFCE80223E146E8
:1023700003F000485FEA080C02D00FF2702C0DE069
:102380005FEA045C02D50FF2682C07E05FEAC47CC8
:1023900002D00FF2602C01E0AFF2700C4FF0FF386A
:1023A00023F00043CDF850C065280CD006DC45284A
:1023B00009D046281DD047283DD13DE0662818D0D9
:1023C00067287ED138E00021112F01DB112000E0C9
:1023D000781CCDE9000106A90EA8FFF7DDFCDDE9B8
:1023E0000F010E9A03910021009207F1010A049156
:1023F0004DE04FF000400097CDE9011006A90EA86E
:10240000FFF7CAFCDDE90F0203920E9B119900222F
:10241000DDF80CA00093049211B9791C00EB010ABD
:10242000B7EB0A0004D4C0F1FF3007F1010A0490B1
:10243000AAEB0700019044E0012F00DA01270021F8
:10244000112F01DD112000E03846CDE9000106A979
:102450000EA8FFF7A1FCDDE90F010E9A0391002100
:1024600004910092BA4621070CD40399514500DA31
:102470008A46BAF1010F05DD009AAAF10101515C0B
:10248000302908D0B84202DA10F1040F06DA01212F
:10249000CDE9011015E0AAF10101E9E7002805DC0A
:1024A000049901440491AAEB000102E0411C51454A
:1024B00000DD8A460499401A401C01904FF000400C
:1024C0000290200704D40198504501DBCDF8048028
:1024D00000208DF84F0002980DF14F07B0F1004F2A
:1024E00025D02B200E9002984FF0020800280CDA1D
:1024F000404202902D200E9007E00A210298FDF73D
:10250000BFFF3031029007F8011DB8F10001A8F1BA
:102510000108F2DC02980028EFD1791E0E980870AD
:10252000307800F0200040F0450007F8020D12A8B6
:10253000C01B00F107081498007800B1012000EBDF
:102540000A01019801EBE07105984144401A401ED0
:102550000590E00306D45B462146179A059800F0E3
:102560005DF805441498007818B15A4617999047B9
:102570006D1CE00324D55B462146179A059800F0B0
:102580004DF805441CE00498002807DBDDE9030151
:10259000884203DD0098405C179901E017993020CC
:1025A0005A469047049805F10105401C0490019893
:1025B000401E019004D12E205A46179990476D1C59
:1025C000BAF10001AAF1010ADDDC05E017F8010B00
:1025D0005A46179990476D1CB8F10001A8F10108FF
:1025E000F4DC5B462146179A0598ABE62D00000007
:1025F0002B000000200000002DE9F04104460025DA
:102600001E461746880404D405E039462020B0470A
:102610006D1C641EF9D52846BDE8F0812DE9F04116
:10262000044600251E469046C80301D5302700E029
:102630002027880404D505E041463846B0476D1C84
:10264000641EF9D52846BDE8F081000038B504467F
:102650000D46E0B200904FF6FF7301226946024832
:10266000FEF759FF204638BD200000202DED068BD7
:10267000FEF74EFDFEF7BEFFFFF7DCFA2BE00A2166
:102680000520FEF779F90446FDF7BEFE41EC1A0B72
:102690009FED110B53EC102BFDF7D5FD41EC190B01
:1026A0009FED0F0B53EC102BFDF73FFE41EC180B89
:1026B000FDF7CAFE0C49086008460068FDF7B1FE48
:1026C00041EC180B53EC182B08A0FFF729FB4FF433
:1026D000FA70FEF7D9FBD2E76666666666660A4060
:1026E000000000000000B040140000205B2020200B
:1026F000494E464F5D206D61696E2E63203A206120
:1027000064635F76616C75653D20252E33667620A7
:102710000D0A0D0A0000000000000000000000008B
:102720000102030406070809000000000102030477
:10273000502700080000002020000000781D00083D
:10274000702700082000002088040000881D000871
:102750000024F40000000000100000000100000050
:102760000000000000000000000000000000000069
:04000005080001AD41
:00000001FF
