:020000040800F2
:10000000B8040020C1010008FF0A0008F70A000830
:10001000FB0A0008A9020008ED100008000000001B
:10002000000000000000000000000000790C000843
:10003000AD02000800000000010B00087B0C000866
:10004000DB010008DB010008DB010008DB01000820
:10005000DB010008DB010008DB010008DB01000810
:10006000DB010008DB010008DB010008DB01000800
:10007000DB010008DB010008DB010008DB010008F0
:10008000DB010008DB010008DB010008DB010008E0
:10009000DB010008DB010008DB010008DB010008D0
:1000A000DB010008DB010008DB010008DB010008C0
:1000B000DB010008DB010008DB010008DB010008B0
:1000C000DB010008DB010008DB010008DB010008A0
:1000D000DB010008DB010008DB010008DB01000890
:1000E000DB010008DB010008DB010008DB01000880
:1000F000DB010008DB010008DB010008DB01000870
:10010000DB010008DB010008DB010008DB0100085F
:10011000DB010008DB010008DB010008DB0100084F
:10012000DB010008DB010008DB010008DB0100083F
:10013000DB010008DB010008DB010008DB0100082F
:10014000DB010008DB010008DB010008DB0100081F
:10015000DB010008DB010008DB010008DB0100080F
:10016000DB010008DB010008DB010008DB010008FF
:10017000DB010008DB010008DB01000800000000D3
:10018000DB010008DB010008DB010008DB010008DF
:10019000DB010008DB010008DB010008DB010008CF
:1001A000DB010008DB010008DB010008DFF80CD0F0
:1001B00000F068F800480047A1140008B8040020C7
:1001C0000648804706480047FEE7FEE7FEE7FEE7F1
:1001D000FEE7FEE7FEE7FEE7FEE7FEE7850C000828
:1001E000AD0100082DE9F05F0546002092469B46D0
:1001F00088460646814640241BE02846414647463D
:10020000224600F02FF853465A46C01A914110D3A7
:1002100011461846224600F016F82D1A67EB010821
:100220004F4622460120002100F00DF817EB00098F
:100230004E41201EA4F10104DFDC484631462A4627
:100240004346BDE8F09F202A04DB203A00FA02F181
:10025000002070479140C2F1200320FA03F31943B4
:1002600090407047202A04DB203A21FA02F0002156
:10027000704721FA02F3D040C2F1200291400843B6
:1002800019467047064C074D06E0E06840F0010350
:1002900094E8070098471034AC42F6D3FFF78AFF82
:1002A000741500089415000800BFFEE770470000B1
:1002B00000B587B000BF002001900D48006840F0F5
:1002C00020000B4908600846006800F020000190FB
:1002D00000BF00BF40200290012003900490022044
:1002E000059002A9034800F01BF807B000BD00000C
:1002F000303802400014024070B5044600F024F982
:1003000006462546681C10B104480078054400BF25
:1003100000F01AF9801BA842FAD370BD0C0000202F
:10032000F8B502460B460025002400200021E6E037
:10033000012606FA01F51E6806EA0504AC4273D1EF
:100340005E68022E02D05E68122E13D1CF0802F131
:10035000200656F827004E07F70E0F26BE40B04382
:100360004F07FF0E1E69BE403043CF0802F1200642
:1003700046F8270010684F000326BE40B0431E79A0
:1003800006F003064F00BE40304310605E68012E49
:1003900008D05E68022E05D05E68112E02D05E681D
:1003A000122E13D190684F000326BE40B0434F0079
:1003B000DE68BE4030439060506801268E40B043F6
:1003C0001E79C6F300168E4030435060D0684F004F
:1003D0000326BE40B0434F009E68BE403043D0600D
:1003E0005E6806F08056B6F1805FA8D100BF002697
:1003F0000096454E366846F48046434F3E603E4682
:10040000366806F48046009600BF00BF3F4E8F0856
:1004100056F827008E07370F0F26BE40B0433C4EDC
:10042000B24202D100262EE068E03A4EB24201D13B
:10043000012628E0384EB24201D1022623E0374E91
:10044000B24201D103261EE0354EB24201D104264C
:1004500019E0344EB24201D1052614E0324EB242C8
:1004600001D106260FE0314EB24201D107260AE043
:100470002F4EB24201D1082605E02E4EB24201D1E4
:10048000092600E00A268F073F0FBE4030431F4E6B
:100490008F0846F82700284E3068A0435E6806F4AF
:1004A0008036B6F5803F00D12043234E3060361DA4
:1004B0003068A0435E6806F40036B6F5003F00D110
:1004C00020431D4E361D3060361D3068A0435E68E7
:1004D00006F48016B6F5801F00D12043164E08366C
:1004E0003060361D3068A0435E6806F40016B6F52D
:1004F000001F00D12043104E0C363060491C1029DB
:10050000FFF416AFF8BD000044380240083801403F
:10051000000002400004024000080240000C0240BB
:10052000001002400014024000180240001C02406B
:100530000020024000240240003C01400AB18161D9
:1005400001E00B04836170470148006870470000B8
:100550000400002003480068034909780844014961
:1005600008607047040000200C000020014800686B
:10057000704700000000002000B5FFF7F7FF0449B6
:100580000968C1F38221034A515CC84000BD0000E4
:10059000083802406C15000800B5FFF7E7FF044972
:1005A0000968C1F34231034A515CC84000BD0000F4
:1005B000083802406C15000810B504460CB901203B
:1005C00010BD606A00B900BF0021A16294F851001B
:1005D00028B9002084F85000204600F033F80220AB
:1005E00084F851002068006820F04000216808600D
:1005F000D4E901010843E1680843216908436169BE
:100600000843218B01F400710843E1690843216A22
:100610000843A16A0843216808600421A06901EA2F
:100620001040616A0843216848602068C06920F46E
:1006300000602168C86100206065012084F85100D5
:100640000020BDE710B586B004461F4920688842E7
:1006500038D11E480068006840F040001B49096816
:10066000086000BF002000901948006840F4801026
:10067000174908600846006800F48010009000BF29
:1006800000BF00BF0020009011481438006840F0FF
:1006900020000F49143908600846006800F0200067
:1006A000009000BF00BF4FF46070019002200290E4
:1006B00000200390032004900520059001A905481F
:1006C000FFF72EFE06B010BD005001405C00002078
:1006D00044380240001402402DE9FF5F044688467A
:1006E00091461D460E9E012002900020019000BF01
:1006F00094F85000012803D1022004B0BDE8F09F17
:10070000012084F8500000BFFFF71EFF074694F851
:1007100051B060680390AA46BBF1010F0BD003985B
:10072000B0F5827F04D1A06810B9BBF1040F02D0EC
:1007300002200190DBE0B8F1000F03D0B9F1000F07
:1007400000D015B901200190D1E094F8510004289F
:1007500002D0052084F8510000206065C4F838906C
:10076000E587A587C4F83080E586A58620646064A7
:100770002068006800F04000402805D0206800682C
:1007800040F0400021680860E068B0F5006F4AD191
:10079000606810B1BAF1010F09D1206B008821689F
:1007A000C860206B801C2063E08E401EE08633E032
:1007B0002068806800F00200022810D1E08E70B13D
:1007C000029801280BD1206B00882168C860206B3B
:1007D000801C2063E08E401EE0860020029020688E
:1007E000806800F0010068B1E08F58B12068C068EF
:1007F000A16B0880A06B801CA063E08F401EE08787
:1008000001200290FFF7A0FEC01BB04204D3701C71
:1008100010B1032001906AE0E08E0028C8D1E08F7B
:100820000028C5D14AE0606810B1BAF1010F09D1C2
:10083000206B007821680873206B401C2063E08ED9
:10084000401EE08634E02068806800F00200022844
:1008500010D1E08E70B1029801280BD1206B007886
:1008600021680873206B401C2063E08E401EE086E8
:10087000002002902068806800F0010068B1E08FDD
:1008800058B12068C068A16B0870A06B401CA063C1
:10089000E08F401EE08701200290FFF755FEC01B4D
:1008A000B04201D3701C00B916B9032001901EE0BC
:1008B000E08E0028C7D1E08F0028C4D13A463146E7
:1008C000204600F02FF920B1012001902020606522
:1008D0000DE0A06850B900BF002000902068C068FB
:1008E000009020688068009000BF00BF00BF01201A
:1008F00084F8510000BF002084F8500000BF019828
:10090000FBE610B504460CB9012010BDA06900B18A
:1009100000E000BF94F8390028B9002084F83800BE
:10092000204600F027F8242084F839002068C068A9
:1009300020F400502168C860204600F0D5F92068F6
:10094000006920F49040216808612068406920F027
:100950002A00216848612068C06840F4005021687E
:10096000C8600020E063202084F8390084F83A0051
:100970000020CAE710B586B00446264920688842A0
:1009800045D100BF002000902348006840F01000CF
:10099000214908600846006800F01000009000BF80
:1009A00000BF00BF002000901B481438006840F0D2
:1009B00001001949143908600846006800F0010078
:1009C000009000BF00BF00BF0020009008460068F4
:1009D00040F0010008600846006800F00100009047
:1009E00000BF00BF48150190022002900120039033
:1009F000022004900720059001A90848FFF790FC09
:100A00004FF48060019001A90448FFF789FC06B00B
:100A100010BD0000001001404438024000000240B8
:100A20002DE9F84304460D4616461F464FF00009CF
:100A300094F8390020285CD105B116B90120BDE831
:100A4000F88300BF94F83800012801D10220F6E7AE
:100A5000012084F8380000BF0020E063212084F8E2
:100A60003900FFF771FD8146A684E6842BE0E08C17
:100A7000401EE084A068B0F5805F16D14B4600228E
:100A800080212046009700F0E3FA08B10320D6E762
:100A9000A846B8F80000C0F3080021684860206943
:100AA00008B9AD1C0FE06D1C0DE04B460022802103
:100AB0002046009700F0CCFA08B10320BFE715F8F4
:100AC000010B21684860E08C0028D0D14B46002201
:100AD00040212046009700F0BBFA08B10320AEE7A2
:100AE000202084F8390000BF002084F8380000BFBF
:100AF000A5E70220A3E700BFFEE700BFFEE77047BF
:100B00007047000001B582B04FF47A70012301AA4A
:100B100002A900900248FFF7DFFD9DF804000EBD1A
:100B20005C0000207CB504460D4616461648006859
:100B30001821B0FBF1F01549B0FBF1F04FF47A71D8
:100B4000484301906068B0F5827F0DD12B460022AA
:100B500080212046009600F03BF898B1606D40F08F
:100B60002000606503207CBD00BF019800B908E04B
:100B70000198401E019020688068C0F3C0100028D2
:100B8000F3D100BF0020EEE70000002040420F003C
:100B900010B50D480D4908604FF48270486000217F
:100BA0000A488160C160022101610121416149025D
:100BB00081610021C1610162416281620721C162DC
:100BC000FFF7FAFC10BD0000005001405C0000205F
:100BD0002DE9F04104460E4617461D46DDF8188003
:100BE0003EE0681CD8B3FFF7AFFCA0EB0800A842BA
:100BF00000D2A5BB2068406820F0E0002168486072
:100C00006068B0F5827F0DD1A068B0F5004F03D0C9
:100C1000A068B0F5806F05D12068006820F0400022
:100C200021680860A06AB0F5005F0DD100BF2068A0
:100C3000006820F40050216808602068006840F4D3
:100C400000502168086000BF012084F8510000BFF7
:100C5000002084F8500000BF0320BDE8F081FFE7CA
:100C6000206880683040B04201D1012000E00020BF
:100C7000B842B6D10020F0E7704710B5FFF76AFC24
:100C800010BD00001448006840F47000124908606C
:100C90001248006840F001001049086000200F4928
:100CA000083108600D4800680D4908400B4908608C
:100CB0000C48091D0860081F006820F48020091FE7
:100CC0000860002005490C3108604FF000600249BF
:100CD000803908607047000088ED00E0003802406D
:100CE000FFFFF6FE103000242DE9F0410446206895
:100CF000006920F44050E1680843216808612169D7
:100D0000A068084361690843E16940EA0105206879
:100D1000C06849F20C61884328432168C860206894
:100D2000406920F44070A169084321684861E06986
:100D3000B0F5004F7ED1C4492068884203D0C34932
:100D4000206888425DD1FFF727FC00EBC00101EB72
:100D5000001061684900B0FBF1F06421B0FBF1F0D4
:100D60000601FFF719FC00EBC00101EB0010616800
:100D70004900B0FBF1F7FFF70FFC00EBC00101EBFE
:100D8000001061684900B0FBF1F06421B0FBF1F0A4
:100D900000EBC00101EB0010A7EB8000322101EB5A
:100DA000C0006421B0FBF1F000F0F80006EB400653
:100DB000FFF7F2FB00EBC00101EB00106168490096
:100DC000B0FBF1F7FFF7E8FB00EBC00101EB00100F
:100DD00061684900B0FBF1F06421B0FBF1F000EB79
:100DE000C00101EB0010A7EB8000322101EBC00035
:100DF0006421B0FBF1F000F0070030442168886006
:100E000020E1FFF7B9FB00EBC00101EB00106168C6
:100E10004900B0FBF1F06421B0FBF1F00601FFF7EF
:100E2000ABFB00EBC00101EB001061684900B0FBB7
:100E3000F1F700E045E0FFF79FFB00EBC00101EB9D
:100E4000001061684900B0FBF1F06421B0FBF1F0E3
:100E500000EBC00101EB0010A7EB8000322101EB99
:100E6000C0006421B0FBF1F000F0F80006EB400692
:100E7000FFF782FB00EBC00101EB00106168490045
:100E8000B0FBF1F7FFF778FB00EBC00101EB0010BE
:100E900061684900B0FBF1F06421B0FBF1F000EBB8
:100EA000C00101EB0010A7EB8000322101EBC00074
:100EB0006421B0FBF1F000F0070030442168886045
:100EC000C0E061492068884203D0604920688842B8
:100ED0005CD1FFF761FB00EBC00101EB0010616822
:100EE0008900B0FBF1F6FFF757FB00EBC00101EB07
:100EF000001061688900B0FBF1F06421B0FBF1F0F3
:100F000000EBC00101EB0010A6EB8000322101EBE9
:100F100000106421B0FBF1F000F0F006FFF73CFB9D
:100F200000EBC00101EB001061688900B0FBF1F03B
:100F30006421B0FBF1F006EB0016FFF72DFB00EB90
:100F4000C00101EB001061688900B0FBF1F7FFF709
:100F500023FB00EBC00101EB001061688900B0FBCE
:100F6000F1F06421B0FBF1F000EBC00101EB0010E7
:100F7000A7EB8000322101EB00106421B0FBF1F0FF
:100F800000F00F003044216888605BE0FFF7F4FA5E
:100F900000EBC00101EB001061688900B0FBF1F6C5
:100FA000FFF7EAFA00EBC00101EB0010616889006D
:100FB000B0FBF1F06421B0FBF1F000EBC00101EBFC
:100FC0000010A6EB8000322101EB00106421B0FB81
:100FD000F1F000F0F006FFF7CFFA00EBC00101EBF3
:100FE000001061688900B0FBF1F06421B0FBF1F002
:100FF00006EB0016FFF7C0FA00EBC00101EB001092
:1010000061688900B0FBF1F7FFF7B6FA00EBC001A9
:1010100001EB001061688900B0FBF1F06421B0FBC6
:10102000F1F000EBC00101EB0010A7EB80003221D2
:1010300001EB00106421B0FBF1F000F00F00304430
:1010400021688860BDE8F081001001400014014073
:101050002DE9F04104460D4617469846069E21E0CC
:10106000701CF8B12EB1FFF76FFAA0EB0800B04288
:1010700018D92068C06820F4D0702168C860206842
:10108000406920F0010021684861202084F839007F
:1010900084F83A0000BF002084F8380000BF032025
:1010A000BDE8F081206800682840A84201D10120F5
:1010B00000E00020B842D3D00020F1E710B5094885
:1010C000094908604FF4E13048600C21064841614D
:1010D00000218160C16081610161C161FFF711FC84
:1010E00010BD0000001001401C00002000BFFEE702
:1010F00010B50024002240210F48FFF71FFA90206E
:10110000FFF700FD9020FFF7FDFC9020FFF7FAFCB1
:101110000020FFF7F7FCFF20FFF7F4FC44EA00246F
:10112000FF20FFF7EFFC0443012240210248FFF7B4
:1011300005FA204610BD00000014024010B500243E
:10114000002240210D48FFF7F9F99F20FFF7DAFC54
:101150009F20FFF7D7FC44EA00449F20FFF7D2FC12
:1011600044EA00249F20FFF7CDFC044301224021E4
:101170000248FFF7E3F9204610BD000000140240CA
:101180000FB4054B10B503A9044A029800F018F8F3
:1011900010BC5DF814FB000081140008180000204A
:1011A00002E008C8121F08C1002AFAD17047704730
:1011B000002001E001C1121F002AFBD1704700008E
:1011C0002DE9FF4F8DB09B460F460446002606E0F2
:1011D00025280BD05A460F999047641C761C20781E
:1011E0000028F5D111B03046BDE8F08F0025A846A3
:1011F0000122984900E0054314F8013F203B02FA20
:1012000003F00842F7D120782E2817D114F8010FE7
:1012100045F004052A280ED06FF02F022078A0F1A7
:10122000300109290AD808EB880102EB410100EBE3
:101230000108641CF2E757F8048B641C20786C28C2
:101240000DD004DC4C2812D06A2811D104E0742897
:101250000DD07A280CD10AE045F4001507E061783A
:1012600045F48015814202D1641C05F58015641C8B
:101270002278692A45D008DC002AB3D0582A69D0E0
:10128000632A10D0642A08D13BE0702A67D0732A01
:1012900013D0752A5CD0782A5CD010465A460F9934
:1012A0009047761CD3E017F8040B8DF8000000205F
:1012B0008DF80100E946012003E057F8049B4FF048
:1012C000FF3069074FF0000501D40AE06D1C454569
:1012D0000DDA8542FADB19F805100029F6D106E08F
:1012E0006D1C8542FCDB19F805100029F8D12E444D
:1012F00004E019F8010B5A460F9990476D1EF8D279
:10130000A5E00A200021CDE90801C5F3025002281A
:101310000DD001CFC117031E71F100030DDA4FF09C
:10132000000CD0EB0C006CEB01012D2308E0FF1D3D
:1013300027F00707F7E80201EDE72B0504D52B237B
:101340008DF8283001233BE0EB0739D02023F7E765
:101350000A2000E010200021CDE9080107E010205C
:10136000002145F00405CDE908014FF00808C5F358
:10137000025002280FD001CF00214FF0000A2B07A6
:101380001FD5702A0DD0DDE908C38CF0100C5CEA83
:10139000030C0CD015E0FF1D27F00707F7E802014A
:1013A000EBE740228DF828204FF0010A0BE050EACD
:1013B000010306D030238DF828308DF82920022330
:1013C0009A46582A04D024A20DF120090B9209E074
:1013D00026A2F9E7DDE90823FEF704FF0B9B9B5CDF
:1013E00009F8013D50EA0102F4D1ADEB09002030CB
:1013F0000890680701D44FF001080899884502DD7C
:10140000A8EB010000E000208046002506E00AA8C5
:101410005A46405D0F9990476D1C761C5545F6DB8A
:1014200004E030205A460F999047761CB8F100012D
:10143000A8F10108F5DC05E019F8010B5A460F99EF
:101440009047761C0899481E08900029F4DC641C1B
:10145000C5E6000009280100303132333435363713
:1014600038396162636465660000000030313233F0
:101470003435363738394142434445460000000090
:1014800038B504460D46E0B200904FF6FF730122D6
:1014900069460248FFF7C4FA204638BD1C00002008
:1014A000FFF70CFEFFF774FBFEF702FF0CA0FFF73F
:1014B00067FE14E0FFF71CFE12490880FFF73EFEAE
:1014C000114908600F48018810A0FFF759FE0E4827
:1014D000016818A0FFF754FE6420FEF70DFFE9E74E
:1014E0002A2A2A2A2A2A2A2A2A5350492D4558418B
:1014F0004D504C452A2A2A2A2A2A2A2A2A2A200DED
:101500000A00000010000020140000205B20206D65
:1015100061696E5D696E666F203A205732355132CF
:1015200035365F44657669636549443A20257820FD
:101530000D0A00005B20206D61696E5D696E666F4B
:10154000203A20573235513235365F4A656465633B
:1015500049443A202578200D0A00000000000000D0
:101560000000000001020304060708090000000053
:101570000102030494150008000000201C00000074
:10158000A0110008B01500081C0000209C040000F9
:10159000B01100080024F40000000000100000005A
:1015A000010000000000000000000000000000003A
:04000005080001AD41
:00000001FF
