:020000040800F2
:1000000048050020C1010008A91400083B1400089D
:10001000A5140008CD020008611B000800000000C4
:100020000000000000000000000000004116000871
:10003000D102000800000000AB14000843160008BD
:10004000DB010008DB010008DB010008DB01000820
:10005000DB010008DB010008DB010008DB01000810
:10006000DB010008DB010008DB010008DB01000800
:10007000DB010008DB010008DB010008DB010008F0
:10008000DB010008DB010008DB010008DB010008E0
:10009000DB010008DB010008DB010008DB010008D0
:1000A000DB010008DB010008DB010008DB010008C0
:1000B000DB010008DB010008DB010008DB010008B0
:1000C000DB010008DB010008DB010008DB010008A0
:1000D000DB010008DB010008DB010008DB01000890
:1000E000DB010008DB010008DB010008DB01000880
:1000F000DB010008DB010008DB010008DB01000870
:10010000DB010008DB010008DB010008DB0100085F
:10011000DB010008DB010008DB010008DB0100084F
:10012000DB010008DB010008DB010008DB0100083F
:10013000DB010008DB010008DB010008DB0100082F
:10014000DB010008DB010008DB010008DB0100081F
:10015000DB010008DB010008DB010008DB0100080F
:10016000DB010008DB010008DB010008DB010008FF
:10017000DB010008DB010008DB01000800000000D3
:10018000DB010008DB010008DB010008DB010008DF
:10019000DB010008DB010008DB010008DB010008CF
:1001A000DB010008DB010008DB010008DFF80CD0F0
:1001B00000F07AF800480047BD1E000848050020FE
:1001C0000648804706480047FEE7FEE7FEE7FEE7F1
:1001D000FEE7FEE7FEE7FEE7FEE7FEE7F9160008AA
:1001E000AD0100082DE9F05F0546002092469B46D0
:1001F00088460646814640241BE02846414647463D
:10020000224600F041F853465A46C01A914110D395
:1002100011461846224600F028F82D1A67EB01080F
:100220004F4622460120002100F01FF817EB00097D
:100230004E41201EA4F10104DFDC484631462A4627
:100240004346BDE8F09FD2B201E000F8012B491E01
:10025000FBD270470022F6E710B513460A46044663
:100260001946FFF7F0FF204610BD202A04DB203A94
:1002700000FA02F1002070479140C2F1200320FAF9
:1002800003F3194390407047202A04DB203A21FAF7
:1002900002F00021704721FA02F3D040C2F120029F
:1002A0009140084319467047064C074D06E0E06848
:1002B00040F0010394E8070098471034AC42F6D3AD
:1002C000FFF778FFB81F0008D81F000800BFFEE73F
:1002D000704730B50246002300240868012816D074
:1002E00013686FF30E03D1E901052843CD68284355
:1002F0000D6928434D6928438D692843CD692843FA
:100300000D6A28434D6A28430343136019E01368BC
:1003100023F4F843D1E9070528434D6A28430343F2
:1003200054686FF30E04D1E901052843CD682843D2
:100330000D6928434D6928438D69284304431360A0
:100340005460002030BD0246506940EA41005061CF
:1003500000207047F8B506460C4615460020009070
:100360000027D4E900010843A168491E40EA411072
:10037000E16840EA412000900098306100F0F8F90F
:10038000074609E0681C38B125B100F0F1F9C01B3F
:10039000A84201D90320F8BDB06900F02000202850
:1003A000F0D00020F7E7000070B5034615460022A4
:1003B0000024012D1FD09A6802F070420868401E88
:1003C0004E68761E40EA06168868401E46EA0026F9
:1003D000C868401E46EA0036088A401E46EA0046C3
:1003E000888A401E46EA0056087E401E46EA0060A3
:1003F00002439A6022E09A6811480240C868401E91
:100400000603888A401E46EA00500243DC6804F076
:1004100070440868401E4E68761E40EA06168868DA
:10042000401E46EA0026088A401E46EA0046087E2C
:10043000401E46EA006004439A60DC60002070BD04
:10044000FF0F0FFF70B5044600F092F906462546EF
:10045000681C10B104480078054400BF00F088F91A
:10046000801BA842FAD370BD0C00002000B587B0F5
:100470003148006808B107B000BD01202E4908606E
:1004800000BF002001902D48006840F001002B497A
:1004900008600846006800F00100019000BF00BF3E
:1004A0004FF63F00029002200390002004900320AA
:1004B00005900C20069002A9214800F04BF80D2071
:1004C00002900220039000200490032005900C204D
:1004D000069002A91B4800F03DF848F23710029040
:1004E0000220039000200490032005900C20069029
:1004F00002A9154800F02EF84FF6807002900220F5
:10050000039000200490032005900C20069002A97F
:100510000E4800F01FF84CF2037002900220039086
:1005200000200490032005900C20069002A90848A2
:1005300000F010F800BF9EE7180000203838024095
:10054000001402400008024000180240001002405F
:10055000000C0240F8B502460B460025002400209E
:100560000021E6E0012606FA01F51E6806EA050408
:10057000AC4273D15E68022E02D05E68122E13D197
:10058000CF0802F1200656F827004E07F70E0F2677
:10059000BE40B0434F07FF0E1E69BE403043CF0838
:1005A00002F1200646F8270010684F000326BE40DF
:1005B000B0431E7906F003064F00BE403043106082
:1005C0005E68012E08D05E68022E05D05E68112E8E
:1005D00002D05E68122E13D190684F000326BE40F1
:1005E000B0434F00DE68BE40304390605068012643
:1005F0008E40B0431E79C6F300168E4030435060E3
:10060000D0684F000326BE40B0434F009E68BE40F6
:100610003043D0605E6806F08056B6F1805FA8D1A6
:1006200000BF00260096454E366846F48046434F8C
:100630003E603E46366806F48046009600BF00BF26
:100640003F4E8F0856F827008E07370F0F26BE4003
:10065000B0433C4EB24202D100262EE068E03A4E52
:10066000B24201D1012628E0384EB24201D1022621
:1006700023E0374EB24201D103261EE0354EB2428E
:1006800001D1042619E0344EB24201D1052614E00E
:10069000324EB24201D106260FE0314EB24201D1B4
:1006A00007260AE02F4EB24201D1082605E02E4E61
:1006B000B24201D1092600E00A268F073F0FBE4053
:1006C00030431F4E8F0846F82700284E3068A0435D
:1006D0005E6806F48036B6F5803F00D12043234E95
:1006E0003060361D3068A0435E6806F40036B6F50B
:1006F000003F00D120431D4E361D3060361D30684E
:10070000A0435E6806F48016B6F5801F00D1204332
:10071000164E08363060361D3068A0435E6806F419
:100720000016B6F5001F00D12043104E0C36306085
:10073000491C1029FFF416AFF8BD000044380240F0
:100740000838014000000240000402400008024056
:10075000000C024000100240001402400018024049
:10076000001C02400020024000240240003C0140E6
:10077000014800687047000004000020034800683A
:1007800003490978084401490860704704000020C3
:100790000C00002070B504460E4800784FF47A71C2
:1007A000B1FBF0F00C490968B1FBF0F5284600F008
:1007B0002FFD08B1012070BD102C07D20022214668
:1007C000501E00F00DF80548046001E00120F2E73A
:1007D0000020F0E70C0000200000002008000020AE
:1007E0002DE9F05F80460D461646002701F0CAF954
:1007F000074639462A46334601F00700C0F1070A8A
:10080000BAF1040F02D94FF0040A01E0C0F1070A5F
:10081000D14600F1040ABAF1070F02D24FF0000AE4
:1008200001E0A0F1030AD4464FF0010A0AFA09FADE
:10083000AAF1010A0AEA020A0AFA0CFA4FF0010BBD
:100840000BFA0CFBABF1010B0BEA030B4AEA0B04AE
:100850002146404601F09EF9BDE8F09F38B50024DE
:1008600000BF002000901D48006840F080501B49E8
:1008700008600846006800F08050009000BF00BF8C
:10088000012017490864FFF773FF044607E0FFF7EC
:100890006FFF001BB0F57A7F01D9032038BD1148E6
:1008A000406800F48030B0F5803FF0D101200C4961
:1008B0004864FFF75DFF044607E0FFF759FF001BA0
:1008C000B0F57A7F01D90320E8E70648406800F4D4
:1008D0000030B0F5003FF0D10020DFE740380240A3
:1008E00000000E420070004070B504460D460CB981
:1008F000012070BD5848006800F00F00A84209D2DE
:1009000055490D700846006800F00F00A84201D05C
:100910000120EEE7207800F0020002281DD12078A7
:1009200000F00400042805D14C48006840F4E05071
:100930004A490860207800F00800082805D1474897
:10094000006840F46040454908604448006820F071
:10095000F000A168084341490860207800F00100D8
:10096000A8B36068012807D13C4808380068C0F384
:100970004040B8B90120BCE76068022802D0606836
:10098000032807D1354808380068C0F3406048B9EB
:100990000120AEE7314808380068C0F3400008B9CC
:1009A0000120A6E72D48006820F003006168084395
:1009B0002A490860FFF7DCFE064609E0FFF7D8FE8B
:1009C000801B41F28831884202D9032091E707E079
:1009D0002248006800F00C006168B0EB810FEDD197
:1009E0001D48006800F00F00A84209D91A490D708F
:1009F0000846006800F00F00A84201D0012078E707
:100A0000207800F00400042807D11448006820F47E
:100A1000E050E168084311490860207800F00800C0
:100A2000082808D10D48006820F46040216940EA98
:100A3000C1000A49086000F03DF808490968C1F39F
:100A40000311074A515CC840064908600020FFF7BF
:100A5000A1FE00204DE70000003C024008380240A3
:100A6000A01F000800000020014800687047000037
:100A70000000002000B5FFF7F7FF04490968C1F343
:100A80008221034A515CC84000BD00000838024082
:100A9000B01F000800B5FFF7E7FF04490968C1F37C
:100AA0004231034A515CC84000BD00000838024092
:100AB000B01F00082DE9F047002400250026A146BC
:100AC0002548006800F00C0020B1042805D0082853
:100AD0003AD105E0DFF8849039E0DFF8849036E021
:100AE0001D48001F006800F03F041B48001F0068FD
:100AF00000F4800078B11A481749091F0968C1F34A
:100B00008811A0FB01700146224600233846FFF7FA
:100B100069FB05460EE011480F49091F0968C1F33A
:100B20008811A0FB01700146224600233846FFF7DA
:100B300059FB05460848001F0068C0F30140401CEF
:100B40004600B5FBF6F902E0DFF8109000BF00BFE9
:100B50004846BDE8F0870000083802400024F40051
:100B600040787D01F8B504460CB90120F8BD207825
:100B700000F00100002874D0F948006800F00C0073
:100B800004280DD0F648006800F00C00082813D1A6
:100B9000F348001F006800F48000B0F5800F0BD10F
:100BA000EF4808380068C0F34040002859D060681A
:100BB000002856D10120D9E700BF6068B0F5803F1A
:100BC00008D1E7480838006840F48030E449083923
:100BD00008601EE06068B0F5A02F0DD1E04808382D
:100BE000006840F48020DE49083908600846006843
:100BF00040F4803008600CE0D9480838006820F4E0
:100C00008030D749083908600846006820F4802001
:100C1000086000BF606890B1FFF7AAFD054606E0D6
:100C2000FFF7A6FD401B642801D903209EE7CC48AE
:100C300008380068C0F340400028F1D011E0FFF709
:100C400097FD054606E0FFF793FD401B642801D998
:100C500003208BE7C24808380068C0F340400028F2
:100C6000F1D1207800F0020002285FD1BC48006872
:100C700000F00C0058B1BA48006800F00C000828D9
:100C80001CD1B748001F006800F48000B0B9B44818
:100C900008380068C0F3400020B1E068012801D0A6
:100CA000012063E7AE480838006820F0F8002169A9
:100CB00040EAC100AA490839086037E0E06800B39B
:100CC0000120A8490860FFF753FD054606E0FFF73D
:100CD0004FFD401B022801D9032047E7A0480838F0
:100CE0000068C0F340000028F1D09D480838006833
:100CF00020F0F800216940EAC100994908390860EC
:100D000014E0002097490860FFF732FD054606E031
:100D1000FFF72EFD401B022801D9032026E790484B
:100D200008380068C0F340000028F1D1207800F0B6
:100D3000080008282CD16069A8B101208A49086000
:100D4000FFF716FD054606E0FFF712FD401B0228DF
:100D500001D903200AE782486C300068C0F34000E4
:100D60000028F1D014E000207F490860FFF700FD63
:100D7000054606E0FFF7FCFC401B022801D90320D2
:100D8000F4E677486C300068C0F340000028F1D1E9
:100D9000207800F00400042870D100267048383014
:100DA000006800F0805090B900BF002000906C48AF
:100DB0003830006840F08050694938310860084692
:100DC000006800F08050009000BF00BF0126674817
:100DD000006800F48070B0B96448006840F4807026
:100DE00062490860FFF7C4FC054606E0FFF7C0FC57
:100DF000401B022801D90320B8E65C48006800F4D3
:100E000080700028F2D000BFA068012808D15448A3
:100E10006830006840F001005149683108601DE009
:100E2000A06805280DD14E486830006840F00400E5
:100E30004B49683108600846006840F001000860CE
:100E40000CE047486830006820F0010044496831F0
:100E500008600846006820F00400086000BFA06831
:100E6000A8B1FFF785FC054609E0FFF781FC401BB0
:100E700041F28831884202D9032077E626E03848DB
:100E800068300068C0F340000028EED013E0FFF7A0
:100E90006FFC054608E0FFF76BFC401B41F2883110
:100EA000884201D9032061E62D4868300068C0F30C
:100EB00040000028EFD1012E07D1294838300068C2
:100EC00020F0805026493831086000BFA069B8B3CF
:100ED0002348006800F00C0008285ED0A0690228B2
:100EE00046D100201F490866FFF742FC054606E090
:100EF000FFF73EFC401B022801D9032036E61848C4
:100F000008380068C0F340600028F1D1D4E9070137
:100F10000843616A40EA81110122A06AC2EB5000D5
:100F200041EA00412C20005D41EA00600C49091FA4
:100F3000086001200B490866FFF71AFC054607E028
:100F40002DE0FFF715FC401B022801D903200DE618
:100F5000034808380068C0F340600028F1D01EE064
:100F60000838024000004742800E474200700040AF
:100F700000200C490866FFF7FBFB054606E0FFF77B
:100F8000F7FB401B022801D90320EFE50648006863
:100F9000C0F340600028F2D101E00120E6E5002026
:100FA000E4E500000000474200380240014691F8A5
:100FB0002C00704770B504460D460CB9012070BD79
:100FC00094F82C0028B9002084F82D00204600F069
:100FD00011F8022084F82C00211D2068FFF779F910
:100FE0002946D4E90002FFF7DFF9012084F82C003C
:100FF0000020E4E710B50446FFF738FA10BD70B5DD
:1010000004460D4694F82C00022800D170BD022041
:1010100084F82C0029462068FFF795F9012084F810
:101020002C000020F2E770B504460D46164694F8F1
:101030002C00022800D170BD022084F82C0032461A
:1010400029462068FFF786F92868022803D1052081
:1010500084F82C0002E0012084F82C000020EAE74C
:1010600010B504460CB9012010BD606A00B900BF7C
:101070000021A16294F8510028B9002084F85000A2
:10108000204600F033F8022084F851002068006800
:1010900020F0400021680860D4E901010843E168BC
:1010A00008432169084361690843218B01F40071F9
:1010B0000843E1690843216A0843A16A084321689B
:1010C00008600421A06901EA1040616A08432168B0
:1010D00048602068C06920F400602168C861002071
:1010E0006065012084F851000020BDE710B586B08E
:1010F000044641492068884239D140480068006868
:1011000040F040003D490968086000BF00200090A1
:101110003B48006840F48010394908600846006880
:1011200000F48010009000BF00BF00BF00200090BE
:1011300033481438006840F0200031491439086001
:101140000846006800F02000009000BF00BF4FF488
:101150006070019002200290002003900320049010
:101160000520059001A92748FFF7F4F941E0264939
:10117000206888423DD100BF0020009020480068D0
:1011800040F480501E4908600846006800F4805012
:10119000009000BF00BF00BF002000901848143826
:1011A000006840F0010016491439086008460068DC
:1011B00000F00100009000BF00BFA02001900220BD
:1011C000029000200390022004900520059001A9C0
:1011D0000E48FFF7BFF94020019002200290002046
:1011E0000390032004900520059001A90748FFF70C
:1011F000B1F906B010BD00000050014064000020AD
:101200004438024000140240003001400000024017
:1012100070B504462546681EB0F1807F01D30120D9
:101220000FE0681E4FF0E02148610F214FF0FF30C2
:1012300000F0B0FC00204FF0E02188610720086139
:10124000002070BD10B504460CB9012010BDA06986
:1012500000B100E000BF94F8390028B9002084F8FC
:101260003800204600F028F8242084F8390020684F
:10127000C06820F400502168C860204600F06EFA73
:101280002068006920F49040216808612068406966
:1012900020F02A00216848612068C06840F40050AE
:1012A0002168C8600020E063202084F8390084F8B9
:1012B0003A000020CAE7000010B586B0044626496F
:1012C0002068884245D100BF002000902348006874
:1012D00040F01000214908600846006800F0100046
:1012E000009000BF00BF00BF002000901B481438D2
:1012F000006840F001001949143908600846006888
:1013000000F00100009000BF00BF00BF002000906F
:101310000846006840F0010008600846006800F0D8
:101320000100009000BF00BF48150190022002900C
:1013300001200390022004900720059001A908488D
:10134000FFF708F94FF48060019001A90448FFF706
:1013500001F906B010BD0000001001404438024001
:10136000000002402DE9F84304460D4616461F468C
:101370004FF0000994F8390020285CD105B116B966
:101380000120BDE8F88300BF94F83800012801D19E
:101390000220F6E7012084F8380000BF0020E06357
:1013A000212084F83900FFF7E3F98146A684E6841A
:1013B0002BE0E08C401EE084A068B0F5805F16D181
:1013C0004B46002280212046009700F07BFB08B1AD
:1013D0000320D6E7A846B8F80000C0F3080021684B
:1013E0004860206908B9AD1C0FE06D1C0DE04B464C
:1013F000002280212046009700F064FB08B1032002
:10140000BFE715F8010B21684860E08C0028D0D1B7
:101410004B46002240212046009700F053FB08B1C4
:101420000320AEE7202084F8390000BF002084F8B4
:10143000380000BFA5E70220A3E700BFFEE70000D9
:1014400000B587B0154816490860002048600121A2
:10145000134881600821C160102101614021416170
:101460004FF4C07181610021C1614FF400610162DC
:1014700049004162490081620220009008200190E9
:10148000062002900390042004900220059006900C
:1014900069460348FFF78EFD07B000BD400100A07C
:1014A0001401002000BFFEE77047704710B505A08B
:1014B00000F058FBFFF7C4FF00F02EF80CA000F07E
:1014C00051FB10BD5B202020494E464F5D20666DCC
:1014D000632E63203A20534452414D5F496E697434
:1014E000204C6F6164696E672E2E2E0D0A0D0A0066
:1014F0005B202020494E464F5D20666D632E6320A1
:101500003A20534452414D5F496E697420446F6ED6
:1015100065210D0A000000001FB501200090102079
:101520000190002003900290102269462548FFF7A1
:101530007AFD00BF2348FFF739FD0228FAD0C92001
:10154000FEF780FF02200090102001900020039001
:101550000290102269461B48FFF765FD00BF19483D
:10156000FFF724FD0228FAD00220009010200190FD
:101570000020039008200290102269461148FFF7CE
:1015800052FD00BF0F48FFF711FD0228FAD00024DA
:101590004FF40C740420009010200190039400205C
:1015A0000290102269460748FFF73DFD00BF05483D
:1015B000FFF7FCFC0228FAD040F2AB210148FFF70C
:1015C0001EFD1FBD1401002010B5194819490860FF
:1015D0004FF482704860002116488160C16002218A
:1015E000016101214161490281610021C161016202
:1015F000416281620721C162FFF732FD0E480F4947
:1016000008604FF48270486000210C488160C1601E
:10161000016141614FF4007181613021C16100219C
:101620000162416281620A21C162FFF719FD10BDAA
:10163000005001406400002000300140BC00002048
:10164000704710B5FFF79AF810BD000000B593B0D1
:10165000302107A8FEF7FEFD142102A8FEF7FAFDCF
:1016600000BF002001902248006840F080502049CF
:1016700008600846006800F08050019000BF00BF7D
:1016800000BF002001901B48006840F44040194909
:1016900008600846006800F44040019000BF00BFA9
:1016A000012007900004089002200D9041050E9142
:1016B0000F210F91D8211091022111910421129133
:1016C00007A8FFF74FFAFFF7C9F80F200290022092
:1016D0000390002004904FF4A05005904FF48050E8
:1016E0000690052102A8FFF7FFF813B000BD000027
:1016F00040380240007000401448006840F4700018
:10170000124908601248006840F001001049086062
:1017100000200F49083108600D4800680D49084055
:101720000B4908600C48091D0860081F006820F478
:101730008020091F0860002005490C3108604FF027
:1017400000600249803908607047000088ED00E0C1
:1017500000380240FFFFF6FE103000242DE9F04172
:1017600004462068006920F44050E168084321687D
:1017700008612169A068084361690843E16940EA9A
:1017800001052068C06849F20C618843284321683C
:10179000C8602068406920F44070A169084321684E
:1017A0004861E069B0F5004F7ED1C44920688842A5
:1017B00003D0C349206888425DD1FFF76BF900EB85
:1017C000C00101EB001061684900B0FBF1F0642139
:1017D000B0FBF1F00601FFF75DF900EBC00101EB92
:1017E000001061684900B0FBF1F7FFF753F900EB17
:1017F000C00101EB001061684900B0FBF1F0642109
:10180000B0FBF1F000EBC00101EB0010A7EB800092
:10181000322101EBC0006421B0FBF1F000F0F800D0
:1018200006EB4006FFF736F900EBC00101EB0010B4
:1018300061684900B0FBF1F7FFF72CF900EBC0013C
:1018400001EB001061684900B0FBF1F06421B0FBCE
:10185000F1F000EBC00101EB0010A7EB800032219A
:1018600001EBC0006421B0FBF1F000F00700304450
:101870002168886020E1FFF7FDF800EBC00101EB73
:10188000001061684900B0FBF1F06421B0FBF1F099
:101890000601FFF7EFF800EBC00101EB00106168F3
:1018A0004900B0FBF1F700E045E0FFF7E3F800EB9B
:1018B000C00101EB001061684900B0FBF1F0642148
:1018C000B0FBF1F000EBC00101EB0010A7EB8000D2
:1018D000322101EBC0006421B0FBF1F000F0F80010
:1018E00006EB4006FFF7C6F800EBC00101EB001065
:1018F00061684900B0FBF1F7FFF7BCF800EBC001ED
:1019000001EB001061684900B0FBF1F06421B0FB0D
:10191000F1F000EBC00101EB0010A7EB80003221D9
:1019200001EBC0006421B0FBF1F000F0070030448F
:1019300021688860C0E061492068884203D060491E
:10194000206888425CD1FFF7A5F800EBC00101EBED
:10195000001061688900B0FBF1F6FFF79BF800EB1F
:10196000C00101EB001061688900B0FBF1F0642157
:10197000B0FBF1F000EBC00101EB0010A6EB800022
:10198000322101EB00106421B0FBF1F000F0F00611
:10199000FFF780F800EBC00101EB001061688900DF
:1019A000B0FBF1F06421B0FBF1F006EB0016FFF79D
:1019B00071F800EBC00101EB001061688900B0FB19
:1019C000F1F7FFF767F800EBC00101EB0010616869
:1019D0008900B0FBF1F06421B0FBF1F000EBC00135
:1019E00001EB0010A7EB8000322101EB0010642115
:1019F000B0FBF1F000F00F003044216888605BE03C
:101A0000FFF738F800EBC00101EB001061688900B6
:101A1000B0FBF1F6FFF72EF800EBC00101EB001070
:101A200061688900B0FBF1F06421B0FBF1F000EBDC
:101A3000C00101EB0010A6EB8000322101EB001089
:101A40006421B0FBF1F000F0F006FFF713F800EBB3
:101A5000C00101EB001061688900B0FBF1F0642166
:101A6000B0FBF1F006EB0016FFF704F800EBC00145
:101A700001EB001061688900B0FBF1F7FEF7FAFF97
:101A800000EBC00101EB001061688900B0FBF1F0D0
:101A90006421B0FBF1F000EBC00101EB0010A7EBFB
:101AA0008000322101EB00106421B0FBF1F000F066
:101AB0000F00304421688860BDE8F08100100140CB
:101AC000001401402DE9F04104460D4617469846A2
:101AD000069E21E0701CF8B12EB1FEF749FEA0EB86
:101AE0000800B04218D92068C06820F4D07021687E
:101AF000C8602068406920F001002168486120200A
:101B000084F8390084F83A0000BF002084F83800D7
:101B100000BF0320BDE8F081206800682840A8428B
:101B200001D1012000E00020B842D3D00020F1E72D
:101B300010B50948094908604FF4E13048600C21AC
:101B40000648416100218160C16081610161C1611C
:101B5000FFF778FB10BD00000010014024000020BA
:101B600000BFFEE70FB4054B10B503A9044A029865
:101B700000F034F810BC5DF814FB00009D1E000856
:101B80002000002002480068C0F3022070470000D7
:101B90000CED00E010B5002804DB0A07130E054A1F
:101BA000135406E00A07140E034A00F00F031B1F2C
:101BB000D45410BD00E400E018ED00E002E008C8D5
:101BC000121F08C1002AFAD170477047002001E0B7
:101BD00001C1121F002AFBD1704700002DE9FF4F01
:101BE0008DB09B460F460446002606E025280BD004
:101BF0005A460F999047641C761C20780028F5D12E
:101C000011B03046BDE8F08F0025A8460122984962
:101C100000E0054314F8013F203B02FA03F00842BC
:101C2000F7D120782E2817D114F8010F45F00405BC
:101C30002A280ED06FF02F022078A0F13001092958
:101C40000AD808EB880102EB410100EB0108641C93
:101C5000F2E757F8048B641C20786C280DD004DC64
:101C60004C2812D06A2811D104E074280DD07A28AB
:101C70000CD10AE045F4001507E0617845F48015C1
:101C8000814202D1641C05F58015641C2278692A02
:101C900045D008DC002AB3D0582A69D0632A10D076
:101CA000642A08D13BE0702A67D0732A13D0752AC2
:101CB0005CD0782A5CD010465A460F999047761C23
:101CC000D3E017F8040B8DF8000000208DF8010018
:101CD000E946012003E057F8049B4FF0FF30690705
:101CE0004FF0000501D40AE06D1C45450DDA854230
:101CF000FADB19F805100029F6D106E06D1C8542C3
:101D0000FCDB19F805100029F8D12E4404E019F87D
:101D1000010B5A460F9990476D1EF8D2A5E00A2094
:101D20000021CDE90801C5F3025002280DD001CFF2
:101D3000C117031E71F100030DDA4FF0000CD0EB58
:101D40000C006CEB01012D2308E0FF1D27F00707B5
:101D5000F7E80201EDE72B0504D52B238DF8283099
:101D600001233BE0EB0739D02023F7E70A2000E00E
:101D700010200021CDE9080107E01020002145F0E6
:101D80000405CDE908014FF00808C5F30250022808
:101D90000FD001CF00214FF0000A2B071FD5702A6A
:101DA0000DD0DDE908C38CF0100C5CEA030C0CD0FC
:101DB00015E0FF1D27F00707F7E80201EBE74022D7
:101DC0008DF828204FF0010A0BE050EA010306D0FD
:101DD00030238DF828308DF8292002239A46582A7E
:101DE00004D024A20DF120090B9209E026A2F9E704
:101DF000DDE90823FEF7F6F90B9B9B5C09F8013D32
:101E000050EA0102F4D1ADEB0900203008906807D8
:101E100001D44FF001080899884502DDA8EB0100C4
:101E200000E000208046002506E00AA85A46405DF2
:101E30000F9990476D1C761C5545F6DB04E0302069
:101E40005A460F999047761CB8F10001A8F1010895
:101E5000F5DC05E019F8010B5A460F999047761CFE
:101E60000899481E08900029F4DC641CC5E60000AF
:101E70000928010030313233343536373839616260
:101E80006364656600000000303132333435363724
:101E900038394142434445460000000038B5044605
:101EA0000D46E0B200904FF6FF73012269460248EA
:101EB000FFF758FA204638BD24000020FFF7C6FB84
:101EC000FFF736FEFFF780FBFFF7F0FA42F21070E3
:101ED000FEF7B8FA0DA0FFF745FE40F655704FF03B
:101EE000404108800846008812490880AA2012490B
:101EF00008801048018811A0FFF734FE0E480188C1
:101F00001BA0FFF72FFE00BFFEE700005B20202094
:101F1000494E464F5D206D61696E2E63203A20D593
:101F2000E2CAC7B4AEBFDABBD8CFD4CAB5D1E90DC7
:101F30000A00000014000020640000C05B20202084
:101F4000494E464F5D206D61696E2E63203A20B682
:101F5000C1B3F6B5C4CAFDBEDD726561645F746568
:101F60006D702D2D3E30782578200D0A0000000080
:101F70005B202020494E464F5D206D61696E2E63C7
:101F8000203A20B6C1B3F6B5C4CAFDBEDD70746593
:101F900073742D2D3E30782578200D0A200D0A000F
:101FA0000000000000000000010203040607080909
:101FB0000000000001020304D81F000800000020F8
:101FC00024000000BC1B0008FC1F000824000020A7
:101FD00024050000CC1B00080024F40000000000D1
:101FE00010000000010000000000000000000000E0
:0C1FF000000000000000000000000000E5
:04000005080001AD41
:00000001FF
